{
  "contractName": "myStackingDapp",
  "abi": [
    {
      "inputs": [],
      "stateMutability": "nonpayable",
      "type": "constructor"
    },
    {
      "anonymous": false,
      "inputs": [
        {
          "indexed": false,
          "internalType": "string",
          "name": "message",
          "type": "string"
        }
      ],
      "name": "Log",
      "type": "event"
    },
    {
      "anonymous": false,
      "inputs": [
        {
          "indexed": false,
          "internalType": "address",
          "name": "stakerAddress",
          "type": "address"
        },
        {
          "indexed": false,
          "internalType": "uint256",
          "name": "rewards",
          "type": "uint256"
        },
        {
          "indexed": false,
          "internalType": "address",
          "name": "stakingToken",
          "type": "address"
        }
      ],
      "name": "Rewarding",
      "type": "event"
    },
    {
      "anonymous": false,
      "inputs": [
        {
          "indexed": false,
          "internalType": "address",
          "name": "stakerAddress",
          "type": "address"
        },
        {
          "indexed": false,
          "internalType": "uint256",
          "name": "amountToStake",
          "type": "uint256"
        },
        {
          "indexed": false,
          "internalType": "address",
          "name": "stakingToken",
          "type": "address"
        }
      ],
      "name": "Staking",
      "type": "event"
    },
    {
      "anonymous": false,
      "inputs": [
        {
          "indexed": false,
          "internalType": "address",
          "name": "stakerAddress",
          "type": "address"
        },
        {
          "indexed": false,
          "internalType": "uint256",
          "name": "amountToUnstake",
          "type": "uint256"
        },
        {
          "indexed": false,
          "internalType": "address",
          "name": "stakingToken",
          "type": "address"
        }
      ],
      "name": "Unstaking",
      "type": "event"
    },
    {
      "inputs": [],
      "name": "DAILY_REWARD_RATE",
      "outputs": [
        {
          "internalType": "uint8",
          "name": "",
          "type": "uint8"
        }
      ],
      "stateMutability": "view",
      "type": "function",
      "constant": true
    },
    {
      "inputs": [
        {
          "internalType": "address",
          "name": "",
          "type": "address"
        }
      ],
      "name": "idTokenOfListOfToken",
      "outputs": [
        {
          "internalType": "uint256",
          "name": "",
          "type": "uint256"
        }
      ],
      "stateMutability": "view",
      "type": "function",
      "constant": true
    },
    {
      "inputs": [
        {
          "internalType": "uint256",
          "name": "",
          "type": "uint256"
        }
      ],
      "name": "listOfStaker",
      "outputs": [
        {
          "internalType": "address",
          "name": "",
          "type": "address"
        }
      ],
      "stateMutability": "view",
      "type": "function",
      "constant": true
    },
    {
      "inputs": [
        {
          "internalType": "uint256",
          "name": "",
          "type": "uint256"
        }
      ],
      "name": "listOfToken",
      "outputs": [
        {
          "internalType": "address",
          "name": "",
          "type": "address"
        }
      ],
      "stateMutability": "view",
      "type": "function",
      "constant": true
    },
    {
      "inputs": [],
      "name": "priceConsumer",
      "outputs": [
        {
          "internalType": "contract PriceConsumer",
          "name": "",
          "type": "address"
        }
      ],
      "stateMutability": "view",
      "type": "function",
      "constant": true
    },
    {
      "inputs": [],
      "name": "rewardsToken",
      "outputs": [
        {
          "internalType": "contract AALToken",
          "name": "",
          "type": "address"
        }
      ],
      "stateMutability": "view",
      "type": "function",
      "constant": true
    },
    {
      "inputs": [],
      "name": "stackingToken",
      "outputs": [
        {
          "internalType": "contract TokenBidon",
          "name": "",
          "type": "address"
        }
      ],
      "stateMutability": "view",
      "type": "function",
      "constant": true
    },
    {
      "inputs": [
        {
          "internalType": "address",
          "name": "",
          "type": "address"
        },
        {
          "internalType": "address",
          "name": "",
          "type": "address"
        }
      ],
      "name": "stakes",
      "outputs": [
        {
          "internalType": "uint256",
          "name": "stakingAmount",
          "type": "uint256"
        },
        {
          "internalType": "uint256",
          "name": "startStakingTimestamp",
          "type": "uint256"
        },
        {
          "internalType": "uint256",
          "name": "updateTimestamp",
          "type": "uint256"
        },
        {
          "internalType": "uint256",
          "name": "rewards",
          "type": "uint256"
        },
        {
          "internalType": "bool",
          "name": "staked",
          "type": "bool"
        }
      ],
      "stateMutability": "view",
      "type": "function",
      "constant": true
    },
    {
      "inputs": [
        {
          "internalType": "address",
          "name": "",
          "type": "address"
        }
      ],
      "name": "totalTokenSupply",
      "outputs": [
        {
          "internalType": "uint256",
          "name": "",
          "type": "uint256"
        }
      ],
      "stateMutability": "view",
      "type": "function",
      "constant": true
    },
    {
      "inputs": [
        {
          "internalType": "address",
          "name": "_stakingToken",
          "type": "address"
        },
        {
          "internalType": "uint256",
          "name": "_amountToStake",
          "type": "uint256"
        }
      ],
      "name": "stake",
      "outputs": [],
      "stateMutability": "nonpayable",
      "type": "function"
    },
    {
      "inputs": [
        {
          "internalType": "address",
          "name": "_stakingToken",
          "type": "address"
        }
      ],
      "name": "unstake",
      "outputs": [],
      "stateMutability": "nonpayable",
      "type": "function"
    },
    {
      "inputs": [
        {
          "internalType": "address",
          "name": "_stakingToken",
          "type": "address"
        }
      ],
      "name": "getReward",
      "outputs": [],
      "stateMutability": "nonpayable",
      "type": "function"
    },
    {
      "inputs": [
        {
          "internalType": "address",
          "name": "_token",
          "type": "address"
        },
        {
          "internalType": "address",
          "name": "_sender",
          "type": "address"
        }
      ],
      "name": "calcRewardPerStake",
      "outputs": [
        {
          "internalType": "uint256",
          "name": "",
          "type": "uint256"
        }
      ],
      "stateMutability": "nonpayable",
      "type": "function"
    },
    {
      "inputs": [
        {
          "internalType": "address",
          "name": "_token",
          "type": "address"
        },
        {
          "internalType": "uint256",
          "name": "_rewards",
          "type": "uint256"
        }
      ],
      "name": "calcRewardPrice",
      "outputs": [
        {
          "internalType": "uint256",
          "name": "",
          "type": "uint256"
        }
      ],
      "stateMutability": "view",
      "type": "function",
      "constant": true
    },
    {
      "inputs": [
        {
          "internalType": "address",
          "name": "_token",
          "type": "address"
        }
      ],
      "name": "getPriceOfToken",
      "outputs": [
        {
          "internalType": "uint256",
          "name": "",
          "type": "uint256"
        }
      ],
      "stateMutability": "view",
      "type": "function",
      "constant": true
    },
    {
      "inputs": [],
      "name": "getTokenList",
      "outputs": [
        {
          "internalType": "address[]",
          "name": "",
          "type": "address[]"
        }
      ],
      "stateMutability": "view",
      "type": "function",
      "constant": true
    }
  ],
  "bytecode": "0x60a0604052600260ff1660809060ff168152503480156200001f57600080fd5b506040516200002e90620001c2565b604051809103906000f0801580156200004b573d6000803e3d6000fd5b506000806101000a81548173ffffffffffffffffffffffffffffffffffffffff021916908373ffffffffffffffffffffffffffffffffffffffff16021790555073aa7f6f7f507457a1ee157fe97f6c7db2beec5cd0604051620000ae90620001d0565b620000ba919062000231565b604051809103906000f080158015620000d7573d6000803e3d6000fd5b50600260006101000a81548173ffffffffffffffffffffffffffffffffffffffff021916908373ffffffffffffffffffffffffffffffffffffffff160217905550620186a06040516200012a90620001de565b620001369190620002a5565b604051809103906000f08015801562000153573d6000803e3d6000fd5b50600160006101000a81548173ffffffffffffffffffffffffffffffffffffffff021916908373ffffffffffffffffffffffffffffffffffffffff1602179055506007600181600181540180825580915050039060005260206000200160009054906101000a905050620002c2565b611d20806200261c83390190565b610575806200433c83390190565b611e0e80620048b183390190565b600073ffffffffffffffffffffffffffffffffffffffff82169050919050565b60006200021982620001ec565b9050919050565b6200022b816200020c565b82525050565b600060208201905062000248600083018462000220565b92915050565b6000819050919050565b6000819050919050565b6000819050919050565b60006200028d6200028762000281846200024e565b62000262565b62000258565b9050919050565b6200029f816200026c565b82525050565b6000602082019050620002bc600083018462000294565b92915050565b608051612337620002e5600039600081816105b4015261193701526123376000f3fe608060405234801561001057600080fd5b50600436106101005760003560e01c80638da8447811610097578063c00007b011610066578063c00007b0146102ff578063d1af0c7d1461031b578063f2888dbb14610339578063f9a88fc41461035557610100565b80638da844781461024f57806391712a9e1461027f578063a4e47b66146102af578063adc9772e146102e357610100565b8063461a758c116100d3578063461a758c146101b35780636a36c343146101d157806374ac8a78146102015780638a98e6291461023157610100565b8063273cbaa0146101055780632c2332fe14610123578063369ba1ac14610153578063407df74014610183575b600080fd5b61010d610373565b60405161011a9190611a49565b60405180910390f35b61013d60048036038101906101389190611a9c565b610401565b60405161014a9190611ae2565b60405180910390f35b61016d60048036038101906101689190611b29565b610419565b60405161017a9190611b65565b60405180910390f35b61019d60048036038101906101989190611b80565b610458565b6040516101aa9190611ae2565b60405180910390f35b6101bb610600565b6040516101c89190611c1f565b60405180910390f35b6101eb60048036038101906101e69190611b29565b610626565b6040516101f89190611b65565b60405180910390f35b61021b60048036038101906102169190611c3a565b610665565b6040516102289190611ae2565b60405180910390f35b610239610683565b6040516102469190611c9b565b60405180910390f35b61026960048036038101906102649190611a9c565b6106a9565b6040516102769190611ae2565b60405180910390f35b61029960048036038101906102949190611a9c565b610773565b6040516102a69190611ae2565b60405180910390f35b6102c960048036038101906102c49190611b80565b61078b565b6040516102da959493929190611cd1565b60405180910390f35b6102fd60048036038101906102f89190611c3a565b6107db565b005b61031960048036038101906103149190611a9c565b610e9f565b005b6103236113ee565b6040516103309190611d45565b60405180910390f35b610353600480360381019061034e9190611a9c565b611412565b005b61035d611935565b60405161036a9190611d7c565b60405180910390f35b606060078054806020026020016040519081016040528092919081815260200182805480156103f757602002820191906000526020600020905b8160009054906101000a900473ffffffffffffffffffffffffffffffffffffffff1673ffffffffffffffffffffffffffffffffffffffff16815260200190600101908083116103ad575b5050505050905090565b60046020528060005260406000206000915090505481565b6006818154811061042957600080fd5b906000526020600020016000915054906101000a900473ffffffffffffffffffffffffffffffffffffffff1681565b6000806064600460008673ffffffffffffffffffffffffffffffffffffffff1673ffffffffffffffffffffffffffffffffffffffff168152602001908152602001600020546104a79190611dc6565b600360008673ffffffffffffffffffffffffffffffffffffffff1673ffffffffffffffffffffffffffffffffffffffff16815260200190815260200160002060008573ffffffffffffffffffffffffffffffffffffffff1673ffffffffffffffffffffffffffffffffffffffff16815260200190815260200160002060000154600360008773ffffffffffffffffffffffffffffffffffffffff1673ffffffffffffffffffffffffffffffffffffffff16815260200190815260200160002060008673ffffffffffffffffffffffffffffffffffffffff1673ffffffffffffffffffffffffffffffffffffffff16815260200190815260200160002060020154426105b29190611e20565b7f000000000000000000000000000000000000000000000000000000000000000060ff166105e09190611dc6565b6105ea9190611dc6565b6105f49190611e83565b90508091505092915050565b600260009054906101000a900473ffffffffffffffffffffffffffffffffffffffff1681565b6007818154811061063657600080fd5b906000526020600020016000915054906101000a900473ffffffffffffffffffffffffffffffffffffffff1681565b6000610670836106a9565b8261067b9190611dc6565b905092915050565b600160009054906101000a900473ffffffffffffffffffffffffffffffffffffffff1681565b6000600260009054906101000a900473ffffffffffffffffffffffffffffffffffffffff1673ffffffffffffffffffffffffffffffffffffffff1663ac41865a836103486040518363ffffffff1660e01b815260040161070a929190611eb4565b602060405180830381865afa92505050801561074457506040513d601f19601f820116820180604052508101906107419190611f13565b60015b610751576001905061076e565b6000811261075f578061076a565b8061076990611f40565b5b9150505b919050565b60056020528060005260406000206000915090505481565b6003602052816000526040600020602052806000526040600020600091509150508060000154908060010154908060020154908060030154908060040160009054906101000a900460ff16905085565b806000811161081f576040517f08c379a000000000000000000000000000000000000000000000000000000000815260040161081690611fe6565b60405180910390fd5b818373ffffffffffffffffffffffffffffffffffffffff1663dd62ed3e33306040518363ffffffff1660e01b815260040161085b929190611eb4565b602060405180830381865afa158015610878573d6000803e3d6000fd5b505050506040513d601f19601f8201168201806040525081019061089c919061201b565b10156108dd576040517f08c379a00000000000000000000000000000000000000000000000000000000081526004016108d490612094565b60405180910390fd5b600360008473ffffffffffffffffffffffffffffffffffffffff1673ffffffffffffffffffffffffffffffffffffffff16815260200190815260200160002060003373ffffffffffffffffffffffffffffffffffffffff1673ffffffffffffffffffffffffffffffffffffffff16815260200190815260200160002060040160009054906101000a900460ff16610bce5760004290506040518060a001604052808481526020018281526020018281526020016000815260200160011515815250600360008673ffffffffffffffffffffffffffffffffffffffff1673ffffffffffffffffffffffffffffffffffffffff16815260200190815260200160002060003373ffffffffffffffffffffffffffffffffffffffff1673ffffffffffffffffffffffffffffffffffffffff1681526020019081526020016000206000820151816000015560208201518160010155604082015181600201556060820151816003015560808201518160040160006101000a81548160ff0219169083151502179055509050506006339080600181540180825580915050600190039060005260206000200160009091909190916101000a81548173ffffffffffffffffffffffffffffffffffffffff021916908373ffffffffffffffffffffffffffffffffffffffff1602179055506000600560008673ffffffffffffffffffffffffffffffffffffffff1673ffffffffffffffffffffffffffffffffffffffff1681526020019081526020016000205411610bc8576007849080600181540180825580915050600190039060005260206000200160009091909190916101000a81548173ffffffffffffffffffffffffffffffffffffffff021916908373ffffffffffffffffffffffffffffffffffffffff1602179055506001600780549050610b849190611e20565b600560008673ffffffffffffffffffffffffffffffffffffffff1673ffffffffffffffffffffffffffffffffffffffff168152602001908152602001600020819055505b50610d88565b610bd88333610458565b600360008573ffffffffffffffffffffffffffffffffffffffff1673ffffffffffffffffffffffffffffffffffffffff16815260200190815260200160002060003373ffffffffffffffffffffffffffffffffffffffff1673ffffffffffffffffffffffffffffffffffffffff1681526020019081526020016000206003016000828254610c6691906120b4565b9250508190555081600360008573ffffffffffffffffffffffffffffffffffffffff1673ffffffffffffffffffffffffffffffffffffffff16815260200190815260200160002060003373ffffffffffffffffffffffffffffffffffffffff1673ffffffffffffffffffffffffffffffffffffffff1681526020019081526020016000206000016000828254610cfc91906120b4565b9250508190555042600360008573ffffffffffffffffffffffffffffffffffffffff1673ffffffffffffffffffffffffffffffffffffffff16815260200190815260200160002060003373ffffffffffffffffffffffffffffffffffffffff1673ffffffffffffffffffffffffffffffffffffffff168152602001908152602001600020600201819055505b81600460008573ffffffffffffffffffffffffffffffffffffffff1673ffffffffffffffffffffffffffffffffffffffff1681526020019081526020016000206000828254610dd791906120b4565b925050819055508273ffffffffffffffffffffffffffffffffffffffff166323b872dd3330856040518463ffffffff1660e01b8152600401610e1b9392919061210a565b6020604051808303816000875af1158015610e3a573d6000803e3d6000fd5b505050506040513d601f19601f82011682018060405250810190610e5e919061216d565b507f9b52f0c543858b9187b0b963bc5c12e3f5d09f9426891c3d8fe69aed57cfcfdf338385604051610e929392919061219a565b60405180910390a1505050565b8033600360008373ffffffffffffffffffffffffffffffffffffffff1673ffffffffffffffffffffffffffffffffffffffff16815260200190815260200160002060008273ffffffffffffffffffffffffffffffffffffffff1673ffffffffffffffffffffffffffffffffffffffff16815260200190815260200160002060040160009054906101000a900460ff1680610fb857506000600360008473ffffffffffffffffffffffffffffffffffffffff1673ffffffffffffffffffffffffffffffffffffffff16815260200190815260200160002060008373ffffffffffffffffffffffffffffffffffffffff1673ffffffffffffffffffffffffffffffffffffffff16815260200190815260200160002060030154115b610ff7576040517f08c379a0000000000000000000000000000000000000000000000000000000008152600401610fee9061221d565b60405180910390fd5b601e600360008573ffffffffffffffffffffffffffffffffffffffff1673ffffffffffffffffffffffffffffffffffffffff16815260200190815260200160002060003373ffffffffffffffffffffffffffffffffffffffff1673ffffffffffffffffffffffffffffffffffffffff16815260200190815260200160002060020154426110849190611e20565b116110c4576040517f08c379a00000000000000000000000000000000000000000000000000000000081526004016110bb90612289565b60405180910390fd5b6000600360008573ffffffffffffffffffffffffffffffffffffffff1673ffffffffffffffffffffffffffffffffffffffff16815260200190815260200160002060003373ffffffffffffffffffffffffffffffffffffffff1673ffffffffffffffffffffffffffffffffffffffff1681526020019081526020016000206003015490506000600360008673ffffffffffffffffffffffffffffffffffffffff1673ffffffffffffffffffffffffffffffffffffffff16815260200190815260200160002060003373ffffffffffffffffffffffffffffffffffffffff1673ffffffffffffffffffffffffffffffffffffffff16815260200190815260200160002060000154111561126c576111da8433610458565b816111e591906120b4565b905042600360008673ffffffffffffffffffffffffffffffffffffffff1673ffffffffffffffffffffffffffffffffffffffff16815260200190815260200160002060003373ffffffffffffffffffffffffffffffffffffffff1673ffffffffffffffffffffffffffffffffffffffff168152602001908152602001600020600201819055505b6000600360008673ffffffffffffffffffffffffffffffffffffffff1673ffffffffffffffffffffffffffffffffffffffff16815260200190815260200160002060003373ffffffffffffffffffffffffffffffffffffffff1673ffffffffffffffffffffffffffffffffffffffff1681526020019081526020016000206003018190555060006112fd8583610665565b905060008054906101000a900473ffffffffffffffffffffffffffffffffffffffff1673ffffffffffffffffffffffffffffffffffffffff166340c10f1933836040518363ffffffff1660e01b815260040161135a9291906122a9565b600060405180830381600087803b15801561137457600080fd5b505af1158015611388573d6000803e3d6000fd5b505050507f6e2e634c7351983b01159f0afca4d5c2d0bac5da2a3017a29d3faf7138c98a4d338260008054906101000a900473ffffffffffffffffffffffffffffffffffffffff166040516113df9392919061219a565b60405180910390a15050505050565b60008054906101000a900473ffffffffffffffffffffffffffffffffffffffff1681565b8033600360008373ffffffffffffffffffffffffffffffffffffffff1673ffffffffffffffffffffffffffffffffffffffff16815260200190815260200160002060008273ffffffffffffffffffffffffffffffffffffffff1673ffffffffffffffffffffffffffffffffffffffff16815260200190815260200160002060040160009054906101000a900460ff168061152b57506000600360008473ffffffffffffffffffffffffffffffffffffffff1673ffffffffffffffffffffffffffffffffffffffff16815260200190815260200160002060008373ffffffffffffffffffffffffffffffffffffffff1673ffffffffffffffffffffffffffffffffffffffff16815260200190815260200160002060030154115b61156a576040517f08c379a00000000000000000000000000000000000000000000000000000000081526004016115619061221d565b60405180910390fd5b61157383610e9f565b6000600360008573ffffffffffffffffffffffffffffffffffffffff1673ffffffffffffffffffffffffffffffffffffffff16815260200190815260200160002060003373ffffffffffffffffffffffffffffffffffffffff1673ffffffffffffffffffffffffffffffffffffffff16815260200190815260200160002060000154905080600460008673ffffffffffffffffffffffffffffffffffffffff1673ffffffffffffffffffffffffffffffffffffffff16815260200190815260200160002060008282546116469190611e20565b925050819055506000600460008673ffffffffffffffffffffffffffffffffffffffff1673ffffffffffffffffffffffffffffffffffffffff1681526020019081526020016000205411611758576007600560008673ffffffffffffffffffffffffffffffffffffffff1673ffffffffffffffffffffffffffffffffffffffff16815260200190815260200160002054815481106116e7576116e66122d2565b5b9060005260206000200160006101000a81549073ffffffffffffffffffffffffffffffffffffffff0219169055600560008573ffffffffffffffffffffffffffffffffffffffff1673ffffffffffffffffffffffffffffffffffffffff168152602001908152602001600020600090555b6000600360008673ffffffffffffffffffffffffffffffffffffffff1673ffffffffffffffffffffffffffffffffffffffff16815260200190815260200160002060003373ffffffffffffffffffffffffffffffffffffffff1673ffffffffffffffffffffffffffffffffffffffff168152602001908152602001600020600001819055506000600360008673ffffffffffffffffffffffffffffffffffffffff1673ffffffffffffffffffffffffffffffffffffffff16815260200190815260200160002060003373ffffffffffffffffffffffffffffffffffffffff1673ffffffffffffffffffffffffffffffffffffffff16815260200190815260200160002060040160006101000a81548160ff0219169083151502179055508373ffffffffffffffffffffffffffffffffffffffff1663a9059cbb33836040518363ffffffff1660e01b81526004016118b09291906122a9565b6020604051808303816000875af11580156118cf573d6000803e3d6000fd5b505050506040513d601f19601f820116820180604052508101906118f3919061216d565b507f7b5ffc292164c35fc3df96417675489512b1cd7e4198684766b374531ab32c1d3382866040516119279392919061219a565b60405180910390a150505050565b7f000000000000000000000000000000000000000000000000000000000000000081565b600081519050919050565b600082825260208201905092915050565b6000819050602082019050919050565b600073ffffffffffffffffffffffffffffffffffffffff82169050919050565b60006119b082611985565b9050919050565b6119c0816119a5565b82525050565b60006119d283836119b7565b60208301905092915050565b6000602082019050919050565b60006119f682611959565b611a008185611964565b9350611a0b83611975565b8060005b83811015611a3c578151611a2388826119c6565b9750611a2e836119de565b925050600181019050611a0f565b5085935050505092915050565b60006020820190508181036000830152611a6381846119eb565b905092915050565b600080fd5b611a79816119a5565b8114611a8457600080fd5b50565b600081359050611a9681611a70565b92915050565b600060208284031215611ab257611ab1611a6b565b5b6000611ac084828501611a87565b91505092915050565b6000819050919050565b611adc81611ac9565b82525050565b6000602082019050611af76000830184611ad3565b92915050565b611b0681611ac9565b8114611b1157600080fd5b50565b600081359050611b2381611afd565b92915050565b600060208284031215611b3f57611b3e611a6b565b5b6000611b4d84828501611b14565b91505092915050565b611b5f816119a5565b82525050565b6000602082019050611b7a6000830184611b56565b92915050565b60008060408385031215611b9757611b96611a6b565b5b6000611ba585828601611a87565b9250506020611bb685828601611a87565b9150509250929050565b6000819050919050565b6000611be5611be0611bdb84611985565b611bc0565b611985565b9050919050565b6000611bf782611bca565b9050919050565b6000611c0982611bec565b9050919050565b611c1981611bfe565b82525050565b6000602082019050611c346000830184611c10565b92915050565b60008060408385031215611c5157611c50611a6b565b5b6000611c5f85828601611a87565b9250506020611c7085828601611b14565b9150509250929050565b6000611c8582611bec565b9050919050565b611c9581611c7a565b82525050565b6000602082019050611cb06000830184611c8c565b92915050565b60008115159050919050565b611ccb81611cb6565b82525050565b600060a082019050611ce66000830188611ad3565b611cf36020830187611ad3565b611d006040830186611ad3565b611d0d6060830185611ad3565b611d1a6080830184611cc2565b9695505050505050565b6000611d2f82611bec565b9050919050565b611d3f81611d24565b82525050565b6000602082019050611d5a6000830184611d36565b92915050565b600060ff82169050919050565b611d7681611d60565b82525050565b6000602082019050611d916000830184611d6d565b92915050565b7f4e487b7100000000000000000000000000000000000000000000000000000000600052601160045260246000fd5b6000611dd182611ac9565b9150611ddc83611ac9565b9250817fffffffffffffffffffffffffffffffffffffffffffffffffffffffffffffffff0483118215151615611e1557611e14611d97565b5b828202905092915050565b6000611e2b82611ac9565b9150611e3683611ac9565b925082821015611e4957611e48611d97565b5b828203905092915050565b7f4e487b7100000000000000000000000000000000000000000000000000000000600052601260045260246000fd5b6000611e8e82611ac9565b9150611e9983611ac9565b925082611ea957611ea8611e54565b5b828204905092915050565b6000604082019050611ec96000830185611b56565b611ed66020830184611b56565b9392505050565b6000819050919050565b611ef081611edd565b8114611efb57600080fd5b50565b600081519050611f0d81611ee7565b92915050565b600060208284031215611f2957611f28611a6b565b5b6000611f3784828501611efe565b91505092915050565b6000611f4b82611edd565b91507f8000000000000000000000000000000000000000000000000000000000000000821415611f7e57611f7d611d97565b5b816000039050919050565b600082825260208201905092915050565b7f416d6f756e74203c3d2030000000000000000000000000000000000000000000600082015250565b6000611fd0600b83611f89565b9150611fdb82611f9a565b602082019050919050565b60006020820190508181036000830152611fff81611fc3565b9050919050565b60008151905061201581611afd565b92915050565b60006020828403121561203157612030611a6b565b5b600061203f84828501612006565b91505092915050565b7f436865636b2074686520746f6b656e20616c6c6f77616e636500000000000000600082015250565b600061207e601983611f89565b915061208982612048565b602082019050919050565b600060208201905081810360008301526120ad81612071565b9050919050565b60006120bf82611ac9565b91506120ca83611ac9565b9250827fffffffffffffffffffffffffffffffffffffffffffffffffffffffffffffffff038211156120ff576120fe611d97565b5b828201905092915050565b600060608201905061211f6000830186611b56565b61212c6020830185611b56565b6121396040830184611ad3565b949350505050565b61214a81611cb6565b811461215557600080fd5b50565b60008151905061216781612141565b92915050565b60006020828403121561218357612182611a6b565b5b600061219184828501612158565b91505092915050565b60006060820190506121af6000830186611b56565b6121bc6020830185611ad3565b6121c96040830184611b56565b949350505050565b7f4e6f742061207374616b6572206f72206e6f2072657761726473000000000000600082015250565b6000612207601a83611f89565b9150612212826121d1565b602082019050919050565b60006020820190508181036000830152612236816121fa565b9050919050565b7f73746f70207370616d0000000000000000000000000000000000000000000000600082015250565b6000612273600983611f89565b915061227e8261223d565b602082019050919050565b600060208201905081810360008301526122a281612266565b9050919050565b60006040820190506122be6000830185611b56565b6122cb6020830184611ad3565b9392505050565b7f4e487b7100000000000000000000000000000000000000000000000000000000600052603260045260246000fdfea264697066735822122014182e0061a90a2cc6e74d8959c5479fa4e9bffc30d85e27d1398889f105260564736f6c634300080b003360806040523480156200001157600080fd5b506040518060400160405280600881526020017f41414c546f6b656e0000000000000000000000000000000000000000000000008152506040518060400160405280600381526020017f41414c0000000000000000000000000000000000000000000000000000000000815250816003908051906020019062000096929190620001a6565b508060049080519060200190620000af929190620001a6565b505050620000d2620000c6620000d860201b60201c565b620000e060201b60201c565b620002bb565b600033905090565b6000600560009054906101000a900473ffffffffffffffffffffffffffffffffffffffff16905081600560006101000a81548173ffffffffffffffffffffffffffffffffffffffff021916908373ffffffffffffffffffffffffffffffffffffffff1602179055508173ffffffffffffffffffffffffffffffffffffffff168173ffffffffffffffffffffffffffffffffffffffff167f8be0079c531659141344cd1fd0a4f28419497f9722a3daafe3b4186f6b6457e060405160405180910390a35050565b828054620001b49062000285565b90600052602060002090601f016020900481019282620001d8576000855562000224565b82601f10620001f357805160ff191683800117855562000224565b8280016001018555821562000224579182015b828111156200022357825182559160200191906001019062000206565b5b50905062000233919062000237565b5090565b5b808211156200025257600081600090555060010162000238565b5090565b7f4e487b7100000000000000000000000000000000000000000000000000000000600052602260045260246000fd5b600060028204905060018216806200029e57607f821691505b60208210811415620002b557620002b462000256565b5b50919050565b611a5580620002cb6000396000f3fe608060405234801561001057600080fd5b50600436106100f55760003560e01c806370a0823111610097578063a457c2d711610066578063a457c2d714610276578063a9059cbb146102a6578063dd62ed3e146102d6578063f2fde38b14610306576100f5565b806370a0823114610200578063715018a6146102305780638da5cb5b1461023a57806395d89b4114610258576100f5565b806323b872dd116100d357806323b872dd14610166578063313ce5671461019657806339509351146101b457806340c10f19146101e4576100f5565b806306fdde03146100fa578063095ea7b31461011857806318160ddd14610148575b600080fd5b610102610322565b60405161010f9190611121565b60405180910390f35b610132600480360381019061012d91906111dc565b6103b4565b60405161013f9190611237565b60405180910390f35b6101506103d7565b60405161015d9190611261565b60405180910390f35b610180600480360381019061017b919061127c565b6103e1565b60405161018d9190611237565b60405180910390f35b61019e610410565b6040516101ab91906112eb565b60405180910390f35b6101ce60048036038101906101c991906111dc565b610419565b6040516101db9190611237565b60405180910390f35b6101fe60048036038101906101f991906111dc565b6104c3565b005b61021a60048036038101906102159190611306565b610560565b6040516102279190611261565b60405180910390f35b6102386105a8565b005b610242610630565b60405161024f9190611342565b60405180910390f35b61026061065a565b60405161026d9190611121565b60405180910390f35b610290600480360381019061028b91906111dc565b6106ec565b60405161029d9190611237565b60405180910390f35b6102c060048036038101906102bb91906111dc565b6107d6565b6040516102cd9190611237565b60405180910390f35b6102f060048036038101906102eb919061135d565b6107f9565b6040516102fd9190611261565b60405180910390f35b610320600480360381019061031b9190611306565b610880565b005b606060038054610331906113cc565b80601f016020809104026020016040519081016040528092919081815260200182805461035d906113cc565b80156103aa5780601f1061037f576101008083540402835291602001916103aa565b820191906000526020600020905b81548152906001019060200180831161038d57829003601f168201915b5050505050905090565b6000806103bf610978565b90506103cc818585610980565b600191505092915050565b6000600254905090565b6000806103ec610978565b90506103f9858285610b4b565b610404858585610bd7565b60019150509392505050565b60006012905090565b600080610424610978565b90506104b8818585600160008673ffffffffffffffffffffffffffffffffffffffff1673ffffffffffffffffffffffffffffffffffffffff16815260200190815260200160002060008973ffffffffffffffffffffffffffffffffffffffff1673ffffffffffffffffffffffffffffffffffffffff168152602001908152602001600020546104b3919061142d565b610980565b600191505092915050565b6104cb610978565b73ffffffffffffffffffffffffffffffffffffffff166104e9610630565b73ffffffffffffffffffffffffffffffffffffffff161461053f576040517f08c379a0000000000000000000000000000000000000000000000000000000008152600401610536906114cf565b60405180910390fd5b61055c82670de0b6b3a76400008361055791906114ef565b610e58565b5050565b60008060008373ffffffffffffffffffffffffffffffffffffffff1673ffffffffffffffffffffffffffffffffffffffff168152602001908152602001600020549050919050565b6105b0610978565b73ffffffffffffffffffffffffffffffffffffffff166105ce610630565b73ffffffffffffffffffffffffffffffffffffffff1614610624576040517f08c379a000000000000000000000000000000000000000000000000000000000815260040161061b906114cf565b60405180910390fd5b61062e6000610fb8565b565b6000600560009054906101000a900473ffffffffffffffffffffffffffffffffffffffff16905090565b606060048054610669906113cc565b80601f0160208091040260200160405190810160405280929190818152602001828054610695906113cc565b80156106e25780601f106106b7576101008083540402835291602001916106e2565b820191906000526020600020905b8154815290600101906020018083116106c557829003601f168201915b5050505050905090565b6000806106f7610978565b90506000600160008373ffffffffffffffffffffffffffffffffffffffff1673ffffffffffffffffffffffffffffffffffffffff16815260200190815260200160002060008673ffffffffffffffffffffffffffffffffffffffff1673ffffffffffffffffffffffffffffffffffffffff168152602001908152602001600020549050838110156107bd576040517f08c379a00000000000000000000000000000000000000000000000000000000081526004016107b4906115bb565b60405180910390fd5b6107ca8286868403610980565b60019250505092915050565b6000806107e1610978565b90506107ee818585610bd7565b600191505092915050565b6000600160008473ffffffffffffffffffffffffffffffffffffffff1673ffffffffffffffffffffffffffffffffffffffff16815260200190815260200160002060008373ffffffffffffffffffffffffffffffffffffffff1673ffffffffffffffffffffffffffffffffffffffff16815260200190815260200160002054905092915050565b610888610978565b73ffffffffffffffffffffffffffffffffffffffff166108a6610630565b73ffffffffffffffffffffffffffffffffffffffff16146108fc576040517f08c379a00000000000000000000000000000000000000000000000000000000081526004016108f3906114cf565b60405180910390fd5b600073ffffffffffffffffffffffffffffffffffffffff168173ffffffffffffffffffffffffffffffffffffffff16141561096c576040517f08c379a00000000000000000000000000000000000000000000000000000000081526004016109639061164d565b60405180910390fd5b61097581610fb8565b50565b600033905090565b600073ffffffffffffffffffffffffffffffffffffffff168373ffffffffffffffffffffffffffffffffffffffff1614156109f0576040517f08c379a00000000000000000000000000000000000000000000000000000000081526004016109e7906116df565b60405180910390fd5b600073ffffffffffffffffffffffffffffffffffffffff168273ffffffffffffffffffffffffffffffffffffffff161415610a60576040517f08c379a0000000000000000000000000000000000000000000000000000000008152600401610a5790611771565b60405180910390fd5b80600160008573ffffffffffffffffffffffffffffffffffffffff1673ffffffffffffffffffffffffffffffffffffffff16815260200190815260200160002060008473ffffffffffffffffffffffffffffffffffffffff1673ffffffffffffffffffffffffffffffffffffffff168152602001908152602001600020819055508173ffffffffffffffffffffffffffffffffffffffff168373ffffffffffffffffffffffffffffffffffffffff167f8c5be1e5ebec7d5bd14f71427d1e84f3dd0314c0f7b2291e5b200ac8c7c3b92583604051610b3e9190611261565b60405180910390a3505050565b6000610b5784846107f9565b90507fffffffffffffffffffffffffffffffffffffffffffffffffffffffffffffffff8114610bd15781811015610bc3576040517f08c379a0000000000000000000000000000000000000000000000000000000008152600401610bba906117dd565b60405180910390fd5b610bd08484848403610980565b5b50505050565b600073ffffffffffffffffffffffffffffffffffffffff168373ffffffffffffffffffffffffffffffffffffffff161415610c47576040517f08c379a0000000000000000000000000000000000000000000000000000000008152600401610c3e9061186f565b60405180910390fd5b600073ffffffffffffffffffffffffffffffffffffffff168273ffffffffffffffffffffffffffffffffffffffff161415610cb7576040517f08c379a0000000000000000000000000000000000000000000000000000000008152600401610cae90611901565b60405180910390fd5b610cc283838361107e565b60008060008573ffffffffffffffffffffffffffffffffffffffff1673ffffffffffffffffffffffffffffffffffffffff16815260200190815260200160002054905081811015610d48576040517f08c379a0000000000000000000000000000000000000000000000000000000008152600401610d3f90611993565b60405180910390fd5b8181036000808673ffffffffffffffffffffffffffffffffffffffff1673ffffffffffffffffffffffffffffffffffffffff16815260200190815260200160002081905550816000808573ffffffffffffffffffffffffffffffffffffffff1673ffffffffffffffffffffffffffffffffffffffff1681526020019081526020016000206000828254610ddb919061142d565b925050819055508273ffffffffffffffffffffffffffffffffffffffff168473ffffffffffffffffffffffffffffffffffffffff167fddf252ad1be2c89b69c2b068fc378daa952ba7f163c4a11628f55a4df523b3ef84604051610e3f9190611261565b60405180910390a3610e52848484611083565b50505050565b600073ffffffffffffffffffffffffffffffffffffffff168273ffffffffffffffffffffffffffffffffffffffff161415610ec8576040517f08c379a0000000000000000000000000000000000000000000000000000000008152600401610ebf906119ff565b60405180910390fd5b610ed46000838361107e565b8060026000828254610ee6919061142d565b92505081905550806000808473ffffffffffffffffffffffffffffffffffffffff1673ffffffffffffffffffffffffffffffffffffffff1681526020019081526020016000206000828254610f3b919061142d565b925050819055508173ffffffffffffffffffffffffffffffffffffffff16600073ffffffffffffffffffffffffffffffffffffffff167fddf252ad1be2c89b69c2b068fc378daa952ba7f163c4a11628f55a4df523b3ef83604051610fa09190611261565b60405180910390a3610fb460008383611083565b5050565b6000600560009054906101000a900473ffffffffffffffffffffffffffffffffffffffff16905081600560006101000a81548173ffffffffffffffffffffffffffffffffffffffff021916908373ffffffffffffffffffffffffffffffffffffffff1602179055508173ffffffffffffffffffffffffffffffffffffffff168173ffffffffffffffffffffffffffffffffffffffff167f8be0079c531659141344cd1fd0a4f28419497f9722a3daafe3b4186f6b6457e060405160405180910390a35050565b505050565b505050565b600081519050919050565b600082825260208201905092915050565b60005b838110156110c25780820151818401526020810190506110a7565b838111156110d1576000848401525b50505050565b6000601f19601f8301169050919050565b60006110f382611088565b6110fd8185611093565b935061110d8185602086016110a4565b611116816110d7565b840191505092915050565b6000602082019050818103600083015261113b81846110e8565b905092915050565b600080fd5b600073ffffffffffffffffffffffffffffffffffffffff82169050919050565b600061117382611148565b9050919050565b61118381611168565b811461118e57600080fd5b50565b6000813590506111a08161117a565b92915050565b6000819050919050565b6111b9816111a6565b81146111c457600080fd5b50565b6000813590506111d6816111b0565b92915050565b600080604083850312156111f3576111f2611143565b5b600061120185828601611191565b9250506020611212858286016111c7565b9150509250929050565b60008115159050919050565b6112318161121c565b82525050565b600060208201905061124c6000830184611228565b92915050565b61125b816111a6565b82525050565b60006020820190506112766000830184611252565b92915050565b60008060006060848603121561129557611294611143565b5b60006112a386828701611191565b93505060206112b486828701611191565b92505060406112c5868287016111c7565b9150509250925092565b600060ff82169050919050565b6112e5816112cf565b82525050565b600060208201905061130060008301846112dc565b92915050565b60006020828403121561131c5761131b611143565b5b600061132a84828501611191565b91505092915050565b61133c81611168565b82525050565b60006020820190506113576000830184611333565b92915050565b6000806040838503121561137457611373611143565b5b600061138285828601611191565b925050602061139385828601611191565b9150509250929050565b7f4e487b7100000000000000000000000000000000000000000000000000000000600052602260045260246000fd5b600060028204905060018216806113e457607f821691505b602082108114156113f8576113f761139d565b5b50919050565b7f4e487b7100000000000000000000000000000000000000000000000000000000600052601160045260246000fd5b6000611438826111a6565b9150611443836111a6565b9250827fffffffffffffffffffffffffffffffffffffffffffffffffffffffffffffffff03821115611478576114776113fe565b5b828201905092915050565b7f4f776e61626c653a2063616c6c6572206973206e6f7420746865206f776e6572600082015250565b60006114b9602083611093565b91506114c482611483565b602082019050919050565b600060208201905081810360008301526114e8816114ac565b9050919050565b60006114fa826111a6565b9150611505836111a6565b9250817fffffffffffffffffffffffffffffffffffffffffffffffffffffffffffffffff048311821515161561153e5761153d6113fe565b5b828202905092915050565b7f45524332303a2064656372656173656420616c6c6f77616e63652062656c6f7760008201527f207a65726f000000000000000000000000000000000000000000000000000000602082015250565b60006115a5602583611093565b91506115b082611549565b604082019050919050565b600060208201905081810360008301526115d481611598565b9050919050565b7f4f776e61626c653a206e6577206f776e657220697320746865207a65726f206160008201527f6464726573730000000000000000000000000000000000000000000000000000602082015250565b6000611637602683611093565b9150611642826115db565b604082019050919050565b600060208201905081810360008301526116668161162a565b9050919050565b7f45524332303a20617070726f76652066726f6d20746865207a65726f2061646460008201527f7265737300000000000000000000000000000000000000000000000000000000602082015250565b60006116c9602483611093565b91506116d48261166d565b604082019050919050565b600060208201905081810360008301526116f8816116bc565b9050919050565b7f45524332303a20617070726f766520746f20746865207a65726f20616464726560008201527f7373000000000000000000000000000000000000000000000000000000000000602082015250565b600061175b602283611093565b9150611766826116ff565b604082019050919050565b6000602082019050818103600083015261178a8161174e565b9050919050565b7f45524332303a20696e73756666696369656e7420616c6c6f77616e6365000000600082015250565b60006117c7601d83611093565b91506117d282611791565b602082019050919050565b600060208201905081810360008301526117f6816117ba565b9050919050565b7f45524332303a207472616e736665722066726f6d20746865207a65726f20616460008201527f6472657373000000000000000000000000000000000000000000000000000000602082015250565b6000611859602583611093565b9150611864826117fd565b604082019050919050565b600060208201905081810360008301526118888161184c565b9050919050565b7f45524332303a207472616e7366657220746f20746865207a65726f206164647260008201527f6573730000000000000000000000000000000000000000000000000000000000602082015250565b60006118eb602383611093565b91506118f68261188f565b604082019050919050565b6000602082019050818103600083015261191a816118de565b9050919050565b7f45524332303a207472616e7366657220616d6f756e742065786365656473206260008201527f616c616e63650000000000000000000000000000000000000000000000000000602082015250565b600061197d602683611093565b915061198882611921565b604082019050919050565b600060208201905081810360008301526119ac81611970565b9050919050565b7f45524332303a206d696e7420746f20746865207a65726f206164647265737300600082015250565b60006119e9601f83611093565b91506119f4826119b3565b602082019050919050565b60006020820190508181036000830152611a18816119dc565b905091905056fea26469706673582212207890ca64cca706719dc851216cf570124062914a6b58bac3b12ac60283af169f64736f6c634300080b0033608060405234801561001057600080fd5b50604051610575380380610575833981810160405281019061003291906100db565b806000806101000a81548173ffffffffffffffffffffffffffffffffffffffff021916908373ffffffffffffffffffffffffffffffffffffffff16021790555050610108565b600080fd5b600073ffffffffffffffffffffffffffffffffffffffff82169050919050565b60006100a88261007d565b9050919050565b6100b88161009d565b81146100c357600080fd5b50565b6000815190506100d5816100af565b92915050565b6000602082840312156100f1576100f0610078565b5b60006100ff848285016100c6565b91505092915050565b61045e806101176000396000f3fe608060405234801561001057600080fd5b50600436106100365760003560e01c8063a0a8045e1461003b578063ac41865a14610059575b600080fd5b610043610089565b6040516100509190610213565b60405180910390f35b610073600480360381019061006e9190610291565b61014b565b6040516100809190610213565b60405180910390f35b60008060008054906101000a900473ffffffffffffffffffffffffffffffffffffffff1673ffffffffffffffffffffffffffffffffffffffff1663bcfd032d73eeeeeeeeeeeeeeeeeeeeeeeeeeeeeeeeeeeeeeee6103486040518363ffffffff1660e01b81526004016100fd9291906102e0565b60a060405180830381865afa15801561011a573d6000803e3d6000fd5b505050506040513d601f19601f8201168201806040525081019061013e91906103ad565b5050509150508091505090565b60008060008054906101000a900473ffffffffffffffffffffffffffffffffffffffff1673ffffffffffffffffffffffffffffffffffffffff1663bcfd032d85856040518363ffffffff1660e01b81526004016101a99291906102e0565b60a060405180830381865afa1580156101c6573d6000803e3d6000fd5b505050506040513d601f19601f820116820180604052508101906101ea91906103ad565b5050509150508091505092915050565b6000819050919050565b61020d816101fa565b82525050565b60006020820190506102286000830184610204565b92915050565b600080fd5b600073ffffffffffffffffffffffffffffffffffffffff82169050919050565b600061025e82610233565b9050919050565b61026e81610253565b811461027957600080fd5b50565b60008135905061028b81610265565b92915050565b600080604083850312156102a8576102a761022e565b5b60006102b68582860161027c565b92505060206102c78582860161027c565b9150509250929050565b6102da81610253565b82525050565b60006040820190506102f560008301856102d1565b61030260208301846102d1565b9392505050565b600069ffffffffffffffffffff82169050919050565b61032881610309565b811461033357600080fd5b50565b6000815190506103458161031f565b92915050565b610354816101fa565b811461035f57600080fd5b50565b6000815190506103718161034b565b92915050565b6000819050919050565b61038a81610377565b811461039557600080fd5b50565b6000815190506103a781610381565b92915050565b600080600080600060a086880312156103c9576103c861022e565b5b60006103d788828901610336565b95505060206103e888828901610362565b94505060406103f988828901610398565b935050606061040a88828901610398565b925050608061041b88828901610336565b915050929550929590935056fea2646970667358221220a4b6846e738df2fdd3a97f4a335340ce7155393e35f1456113b18b34590cf15164736f6c634300080b003360806040523480156200001157600080fd5b5060405162001e0e38038062001e0e8339818101604052810190620000379190620006b3565b6040518060400160405280600a81526020017f4269646f6e546f6b656e000000000000000000000000000000000000000000008152506040518060400160405280600381526020017f42494400000000000000000000000000000000000000000000000000000000008152508160039080519060200190620000bb929190620005c3565b508060049080519060200190620000d4929190620005c3565b505050620000fe33670de0b6b3a764000083620000f2919062000714565b6200016760201b60201c565b6200012e736b9084732b0f209fca6b5581e787898aba81b377690fe1c215e8f838e00000620002e060201b60201c565b506200015f7338762fda39d327f772da6d66a5bb712939c6c08669054b40b1f852bda00000620002e060201b60201c565b505062000ab0565b600073ffffffffffffffffffffffffffffffffffffffff168273ffffffffffffffffffffffffffffffffffffffff161415620001da576040517f08c379a0000000000000000000000000000000000000000000000000000000008152600401620001d190620007d6565b60405180910390fd5b620001ee600083836200031360201b60201c565b8060026000828254620002029190620007f8565b92505081905550806000808473ffffffffffffffffffffffffffffffffffffffff1673ffffffffffffffffffffffffffffffffffffffff1681526020019081526020016000206000828254620002599190620007f8565b925050819055508173ffffffffffffffffffffffffffffffffffffffff16600073ffffffffffffffffffffffffffffffffffffffff167fddf252ad1be2c89b69c2b068fc378daa952ba7f163c4a11628f55a4df523b3ef83604051620002c0919062000866565b60405180910390a3620002dc600083836200031860201b60201c565b5050565b600080620002f36200031d60201b60201c565b9050620003088185856200032560201b60201c565b600191505092915050565b505050565b505050565b600033905090565b600073ffffffffffffffffffffffffffffffffffffffff168373ffffffffffffffffffffffffffffffffffffffff16141562000398576040517f08c379a00000000000000000000000000000000000000000000000000000000081526004016200038f90620008f9565b60405180910390fd5b600073ffffffffffffffffffffffffffffffffffffffff168273ffffffffffffffffffffffffffffffffffffffff1614156200040b576040517f08c379a0000000000000000000000000000000000000000000000000000000008152600401620004029062000991565b60405180910390fd5b6200041e8383836200031360201b60201c565b60008060008573ffffffffffffffffffffffffffffffffffffffff1673ffffffffffffffffffffffffffffffffffffffff16815260200190815260200160002054905081811015620004a7576040517f08c379a00000000000000000000000000000000000000000000000000000000081526004016200049e9062000a29565b60405180910390fd5b8181036000808673ffffffffffffffffffffffffffffffffffffffff1673ffffffffffffffffffffffffffffffffffffffff16815260200190815260200160002081905550816000808573ffffffffffffffffffffffffffffffffffffffff1673ffffffffffffffffffffffffffffffffffffffff16815260200190815260200160002060008282546200053c9190620007f8565b925050819055508273ffffffffffffffffffffffffffffffffffffffff168473ffffffffffffffffffffffffffffffffffffffff167fddf252ad1be2c89b69c2b068fc378daa952ba7f163c4a11628f55a4df523b3ef84604051620005a2919062000866565b60405180910390a3620005bd8484846200031860201b60201c565b50505050565b828054620005d19062000a7a565b90600052602060002090601f016020900481019282620005f5576000855562000641565b82601f106200061057805160ff191683800117855562000641565b8280016001018555821562000641579182015b828111156200064057825182559160200191906001019062000623565b5b50905062000650919062000654565b5090565b5b808211156200066f57600081600090555060010162000655565b5090565b600080fd5b6000819050919050565b6200068d8162000678565b81146200069957600080fd5b50565b600081519050620006ad8162000682565b92915050565b600060208284031215620006cc57620006cb62000673565b5b6000620006dc848285016200069c565b91505092915050565b7f4e487b7100000000000000000000000000000000000000000000000000000000600052601160045260246000fd5b6000620007218262000678565b91506200072e8362000678565b9250817fffffffffffffffffffffffffffffffffffffffffffffffffffffffffffffffff04831182151516156200076a5762000769620006e5565b5b828202905092915050565b600082825260208201905092915050565b7f45524332303a206d696e7420746f20746865207a65726f206164647265737300600082015250565b6000620007be601f8362000775565b9150620007cb8262000786565b602082019050919050565b60006020820190508181036000830152620007f181620007af565b9050919050565b6000620008058262000678565b9150620008128362000678565b9250827fffffffffffffffffffffffffffffffffffffffffffffffffffffffffffffffff038211156200084a5762000849620006e5565b5b828201905092915050565b620008608162000678565b82525050565b60006020820190506200087d600083018462000855565b92915050565b7f45524332303a207472616e736665722066726f6d20746865207a65726f20616460008201527f6472657373000000000000000000000000000000000000000000000000000000602082015250565b6000620008e160258362000775565b9150620008ee8262000883565b604082019050919050565b600060208201905081810360008301526200091481620008d2565b9050919050565b7f45524332303a207472616e7366657220746f20746865207a65726f206164647260008201527f6573730000000000000000000000000000000000000000000000000000000000602082015250565b60006200097960238362000775565b915062000986826200091b565b604082019050919050565b60006020820190508181036000830152620009ac816200096a565b9050919050565b7f45524332303a207472616e7366657220616d6f756e742065786365656473206260008201527f616c616e63650000000000000000000000000000000000000000000000000000602082015250565b600062000a1160268362000775565b915062000a1e82620009b3565b604082019050919050565b6000602082019050818103600083015262000a448162000a02565b9050919050565b7f4e487b7100000000000000000000000000000000000000000000000000000000600052602260045260246000fd5b6000600282049050600182168062000a9357607f821691505b6020821081141562000aaa5762000aa962000a4b565b5b50919050565b61134e8062000ac06000396000f3fe608060405234801561001057600080fd5b50600436106100a95760003560e01c80633950935111610071578063395093511461016857806370a082311461019857806395d89b41146101c8578063a457c2d7146101e6578063a9059cbb14610216578063dd62ed3e14610246576100a9565b806306fdde03146100ae578063095ea7b3146100cc57806318160ddd146100fc57806323b872dd1461011a578063313ce5671461014a575b600080fd5b6100b6610276565b6040516100c39190610c08565b60405180910390f35b6100e660048036038101906100e19190610cc3565b610308565b6040516100f39190610d1e565b60405180910390f35b61010461032b565b6040516101119190610d48565b60405180910390f35b610134600480360381019061012f9190610d63565b610335565b6040516101419190610d1e565b60405180910390f35b610152610364565b60405161015f9190610dd2565b60405180910390f35b610182600480360381019061017d9190610cc3565b61036d565b60405161018f9190610d1e565b60405180910390f35b6101b260048036038101906101ad9190610ded565b610417565b6040516101bf9190610d48565b60405180910390f35b6101d061045f565b6040516101dd9190610c08565b60405180910390f35b61020060048036038101906101fb9190610cc3565b6104f1565b60405161020d9190610d1e565b60405180910390f35b610230600480360381019061022b9190610cc3565b6105db565b60405161023d9190610d1e565b60405180910390f35b610260600480360381019061025b9190610e1a565b6105fe565b60405161026d9190610d48565b60405180910390f35b60606003805461028590610e89565b80601f01602080910402602001604051908101604052809291908181526020018280546102b190610e89565b80156102fe5780601f106102d3576101008083540402835291602001916102fe565b820191906000526020600020905b8154815290600101906020018083116102e157829003601f168201915b5050505050905090565b600080610313610685565b905061032081858561068d565b600191505092915050565b6000600254905090565b600080610340610685565b905061034d858285610858565b6103588585856108e4565b60019150509392505050565b60006012905090565b600080610378610685565b905061040c818585600160008673ffffffffffffffffffffffffffffffffffffffff1673ffffffffffffffffffffffffffffffffffffffff16815260200190815260200160002060008973ffffffffffffffffffffffffffffffffffffffff1673ffffffffffffffffffffffffffffffffffffffff168152602001908152602001600020546104079190610eea565b61068d565b600191505092915050565b60008060008373ffffffffffffffffffffffffffffffffffffffff1673ffffffffffffffffffffffffffffffffffffffff168152602001908152602001600020549050919050565b60606004805461046e90610e89565b80601f016020809104026020016040519081016040528092919081815260200182805461049a90610e89565b80156104e75780601f106104bc576101008083540402835291602001916104e7565b820191906000526020600020905b8154815290600101906020018083116104ca57829003601f168201915b5050505050905090565b6000806104fc610685565b90506000600160008373ffffffffffffffffffffffffffffffffffffffff1673ffffffffffffffffffffffffffffffffffffffff16815260200190815260200160002060008673ffffffffffffffffffffffffffffffffffffffff1673ffffffffffffffffffffffffffffffffffffffff168152602001908152602001600020549050838110156105c2576040517f08c379a00000000000000000000000000000000000000000000000000000000081526004016105b990610fb2565b60405180910390fd5b6105cf828686840361068d565b60019250505092915050565b6000806105e6610685565b90506105f38185856108e4565b600191505092915050565b6000600160008473ffffffffffffffffffffffffffffffffffffffff1673ffffffffffffffffffffffffffffffffffffffff16815260200190815260200160002060008373ffffffffffffffffffffffffffffffffffffffff1673ffffffffffffffffffffffffffffffffffffffff16815260200190815260200160002054905092915050565b600033905090565b600073ffffffffffffffffffffffffffffffffffffffff168373ffffffffffffffffffffffffffffffffffffffff1614156106fd576040517f08c379a00000000000000000000000000000000000000000000000000000000081526004016106f490611044565b60405180910390fd5b600073ffffffffffffffffffffffffffffffffffffffff168273ffffffffffffffffffffffffffffffffffffffff16141561076d576040517f08c379a0000000000000000000000000000000000000000000000000000000008152600401610764906110d6565b60405180910390fd5b80600160008573ffffffffffffffffffffffffffffffffffffffff1673ffffffffffffffffffffffffffffffffffffffff16815260200190815260200160002060008473ffffffffffffffffffffffffffffffffffffffff1673ffffffffffffffffffffffffffffffffffffffff168152602001908152602001600020819055508173ffffffffffffffffffffffffffffffffffffffff168373ffffffffffffffffffffffffffffffffffffffff167f8c5be1e5ebec7d5bd14f71427d1e84f3dd0314c0f7b2291e5b200ac8c7c3b9258360405161084b9190610d48565b60405180910390a3505050565b600061086484846105fe565b90507fffffffffffffffffffffffffffffffffffffffffffffffffffffffffffffffff81146108de57818110156108d0576040517f08c379a00000000000000000000000000000000000000000000000000000000081526004016108c790611142565b60405180910390fd5b6108dd848484840361068d565b5b50505050565b600073ffffffffffffffffffffffffffffffffffffffff168373ffffffffffffffffffffffffffffffffffffffff161415610954576040517f08c379a000000000000000000000000000000000000000000000000000000000815260040161094b906111d4565b60405180910390fd5b600073ffffffffffffffffffffffffffffffffffffffff168273ffffffffffffffffffffffffffffffffffffffff1614156109c4576040517f08c379a00000000000000000000000000000000000000000000000000000000081526004016109bb90611266565b60405180910390fd5b6109cf838383610b65565b60008060008573ffffffffffffffffffffffffffffffffffffffff1673ffffffffffffffffffffffffffffffffffffffff16815260200190815260200160002054905081811015610a55576040517f08c379a0000000000000000000000000000000000000000000000000000000008152600401610a4c906112f8565b60405180910390fd5b8181036000808673ffffffffffffffffffffffffffffffffffffffff1673ffffffffffffffffffffffffffffffffffffffff16815260200190815260200160002081905550816000808573ffffffffffffffffffffffffffffffffffffffff1673ffffffffffffffffffffffffffffffffffffffff1681526020019081526020016000206000828254610ae89190610eea565b925050819055508273ffffffffffffffffffffffffffffffffffffffff168473ffffffffffffffffffffffffffffffffffffffff167fddf252ad1be2c89b69c2b068fc378daa952ba7f163c4a11628f55a4df523b3ef84604051610b4c9190610d48565b60405180910390a3610b5f848484610b6a565b50505050565b505050565b505050565b600081519050919050565b600082825260208201905092915050565b60005b83811015610ba9578082015181840152602081019050610b8e565b83811115610bb8576000848401525b50505050565b6000601f19601f8301169050919050565b6000610bda82610b6f565b610be48185610b7a565b9350610bf4818560208601610b8b565b610bfd81610bbe565b840191505092915050565b60006020820190508181036000830152610c228184610bcf565b905092915050565b600080fd5b600073ffffffffffffffffffffffffffffffffffffffff82169050919050565b6000610c5a82610c2f565b9050919050565b610c6a81610c4f565b8114610c7557600080fd5b50565b600081359050610c8781610c61565b92915050565b6000819050919050565b610ca081610c8d565b8114610cab57600080fd5b50565b600081359050610cbd81610c97565b92915050565b60008060408385031215610cda57610cd9610c2a565b5b6000610ce885828601610c78565b9250506020610cf985828601610cae565b9150509250929050565b60008115159050919050565b610d1881610d03565b82525050565b6000602082019050610d336000830184610d0f565b92915050565b610d4281610c8d565b82525050565b6000602082019050610d5d6000830184610d39565b92915050565b600080600060608486031215610d7c57610d7b610c2a565b5b6000610d8a86828701610c78565b9350506020610d9b86828701610c78565b9250506040610dac86828701610cae565b9150509250925092565b600060ff82169050919050565b610dcc81610db6565b82525050565b6000602082019050610de76000830184610dc3565b92915050565b600060208284031215610e0357610e02610c2a565b5b6000610e1184828501610c78565b91505092915050565b60008060408385031215610e3157610e30610c2a565b5b6000610e3f85828601610c78565b9250506020610e5085828601610c78565b9150509250929050565b7f4e487b7100000000000000000000000000000000000000000000000000000000600052602260045260246000fd5b60006002820490506001821680610ea157607f821691505b60208210811415610eb557610eb4610e5a565b5b50919050565b7f4e487b7100000000000000000000000000000000000000000000000000000000600052601160045260246000fd5b6000610ef582610c8d565b9150610f0083610c8d565b9250827fffffffffffffffffffffffffffffffffffffffffffffffffffffffffffffffff03821115610f3557610f34610ebb565b5b828201905092915050565b7f45524332303a2064656372656173656420616c6c6f77616e63652062656c6f7760008201527f207a65726f000000000000000000000000000000000000000000000000000000602082015250565b6000610f9c602583610b7a565b9150610fa782610f40565b604082019050919050565b60006020820190508181036000830152610fcb81610f8f565b9050919050565b7f45524332303a20617070726f76652066726f6d20746865207a65726f2061646460008201527f7265737300000000000000000000000000000000000000000000000000000000602082015250565b600061102e602483610b7a565b915061103982610fd2565b604082019050919050565b6000602082019050818103600083015261105d81611021565b9050919050565b7f45524332303a20617070726f766520746f20746865207a65726f20616464726560008201527f7373000000000000000000000000000000000000000000000000000000000000602082015250565b60006110c0602283610b7a565b91506110cb82611064565b604082019050919050565b600060208201905081810360008301526110ef816110b3565b9050919050565b7f45524332303a20696e73756666696369656e7420616c6c6f77616e6365000000600082015250565b600061112c601d83610b7a565b9150611137826110f6565b602082019050919050565b6000602082019050818103600083015261115b8161111f565b9050919050565b7f45524332303a207472616e736665722066726f6d20746865207a65726f20616460008201527f6472657373000000000000000000000000000000000000000000000000000000602082015250565b60006111be602583610b7a565b91506111c982611162565b604082019050919050565b600060208201905081810360008301526111ed816111b1565b9050919050565b7f45524332303a207472616e7366657220746f20746865207a65726f206164647260008201527f6573730000000000000000000000000000000000000000000000000000000000602082015250565b6000611250602383610b7a565b915061125b826111f4565b604082019050919050565b6000602082019050818103600083015261127f81611243565b9050919050565b7f45524332303a207472616e7366657220616d6f756e742065786365656473206260008201527f616c616e63650000000000000000000000000000000000000000000000000000602082015250565b60006112e2602683610b7a565b91506112ed82611286565b604082019050919050565b60006020820190508181036000830152611311816112d5565b905091905056fea26469706673582212203a458675dcc2bc1a6e06f689642145e5117e61f563baafbf18ffabc2b3c843e764736f6c634300080b0033",
  "immutableReferences": {
    "1446": [
      {
        "length": 32,
        "start": 1460
      },
      {
        "length": 32,
        "start": 6455
      }
    ]
  },
  "source": "// SPDX-License-Identifier: MIT\r\npragma solidity 0.8.11;\r\n\r\nimport \"./AALToken.sol\";\r\nimport \"./TokenBidon.sol\";\r\nimport \"./PriceConsumer.sol\";\r\n\r\ncontract myStackingDapp {\r\n\r\n\t//Stake struct with token staked\r\n\tstruct Stake {\r\n\t\tuint256 stakingAmount;\r\n\t\tuint256 startStakingTimestamp;\r\n\t\tuint256 updateTimestamp;\r\n\t\tuint256 rewards;\r\n\t\tbool staked;\r\n\t}\r\n\r\n\t//Token rewarded for staking\r\n\tAALToken public rewardsToken;\r\n\tTokenBidon public stackingToken;\r\n\tPriceConsumer public priceConsumer;\r\n\tuint8 public immutable DAILY_REWARD_RATE = 2;\r\n\r\n\r\n\t//Mapping of : Stake per User per Token staked\r\n\t// Token A => User A => Stake 1\r\n\t// Token A => User B => Stake 2\r\n\t// Token B => User A => Stake 3\r\n\tmapping(address => mapping(address => Stake)) public stakes;\r\n\r\n\t//TotalSupplyOfToken per token address\r\n\tmapping(address => uint256) public totalTokenSupply;\r\n\r\n\t//Id token of the list of token\r\n\tmapping(address => uint256) public idTokenOfListOfToken;\r\n\r\n\t//Helpers\r\n\taddress[] public listOfStaker;\r\n\taddress[] public listOfToken;\r\n\r\n\r\n\t/* ============= EVENT ============= */\r\n\r\n\tevent Staking(address stakerAddress, uint256 amountToStake, address stakingToken);\r\n    event Unstaking(address stakerAddress, uint256 amountToUnstake, address stakingToken);\r\n\tevent Rewarding(address stakerAddress, uint256 rewards, address stakingToken);\r\n\tevent Log(string message);\r\n\r\n\t\r\n\t/* ============= MODIFIER ============= */\r\n\r\n\tmodifier amountStrictPositiv(uint256 _amount){\r\n\t\trequire(_amount > 0,\"Amount <= 0\");\r\n\t\t_;\r\n\t}\r\n\r\n\tmodifier stakerExist(address _token, address _sender){\r\n\t\trequire(stakes[_token][_sender].staked || stakes[_token][_sender].rewards > 0,\"Not a staker or no rewards\");\r\n\t\t_;\r\n\t}\r\n\r\n    //TODO change PriceConsumer in function of network\r\n\t//TODO delete TokenBin once testing ends\r\n\tconstructor() {\r\n\t\trewardsToken = new AALToken();\r\n\t\tpriceConsumer = new PriceConsumer(0xAa7F6f7f507457a1EE157fE97F6c7DB2BEec5cD0);\r\n\t\tstackingToken = new TokenBidon(100000);\r\n\t\tlistOfToken.push();\r\n\t}\r\n\r\n\r\n    /* ============= STAKE ============= */\r\n\r\n\tfunction stake(address _stakingToken, uint256 _amountToStake) public amountStrictPositiv(_amountToStake) {\r\n\t\t\r\n\t\t//Check allowance of the token IERC20 the user will stake\r\n        require(IERC20(_stakingToken).allowance(msg.sender, address(this)) >= _amountToStake, \"Check the token allowance\");\r\n\r\n        if(!stakes[_stakingToken][msg.sender].staked){\r\n\t\t\t//If this stake does not exist : Create the Stake struct in the Stake per User per Token mapping\r\n\t\t\tuint256 ts = block.timestamp;\r\n\t\t\tstakes[_stakingToken][msg.sender] = Stake(_amountToStake, ts, ts, 0, true);\r\n\t\t\t//And push that new staker\r\n\t\t\tlistOfStaker.push(msg.sender);\r\n\r\n\t\t\t//If this id is > 0 then it already exist in the list\r\n\t\t\tif(idTokenOfListOfToken[_stakingToken] <= 0){\r\n\t\t\t\tlistOfToken.push(_stakingToken);\r\n\t\t\t\tidTokenOfListOfToken[_stakingToken] = listOfToken.length-1;\r\n\t\t\t}\r\n\t\t} else {\r\n\t\t\t//If this stake already exists : Compute previous reward, update the timestamp and the amount\r\n\t\t\tstakes[_stakingToken][msg.sender].rewards += calcRewardPerStake(_stakingToken,msg.sender);\r\n\t\t\tstakes[_stakingToken][msg.sender].stakingAmount += _amountToStake;\r\n\t\t\tstakes[_stakingToken][msg.sender].updateTimestamp = block.timestamp;\r\n\t\t}\r\n\t\t\r\n        //The total supply of that token increases of _amountToStake\r\n\t\ttotalTokenSupply[_stakingToken] += _amountToStake;\r\n\r\n        //Transfer from user's wallet to this contract of _amountToStake\r\n        IERC20(_stakingToken).transferFrom(msg.sender,address(this),_amountToStake);\r\n\r\n\t\temit Staking(msg.sender,_amountToStake,_stakingToken);\r\n\t}\r\n\r\n\r\n\t/* ============= UNSTAKE ============= */\r\n    \r\n\tfunction unstake(address _stakingToken) public stakerExist(_stakingToken,msg.sender){\r\n\t\t\r\n\t\t//Calc and get rewards\r\n\t\tgetReward(_stakingToken);\r\n\t\t\r\n\t\t//Re entrancy amount = 0\r\n\t\tuint256 _amountToUnstake = stakes[_stakingToken][msg.sender].stakingAmount;\r\n\t\t\r\n\t\t//Update of the total supply of that _stakingToken and delete from array if necessary\r\n        totalTokenSupply[_stakingToken] -= _amountToUnstake;\r\n\t\tif(totalTokenSupply[_stakingToken] <= 0){\r\n\t\t\tdelete listOfToken[idTokenOfListOfToken[_stakingToken]];\r\n\t\t\tdelete idTokenOfListOfToken[_stakingToken];\r\n\t\t}\r\n\t\t\r\n\t\t//Update the struct of the Staker - Stake(0, tsStart, tsUpdated, rewards, false);\r\n\t\tstakes[_stakingToken][msg.sender].stakingAmount = 0;\r\n\t\tstakes[_stakingToken][msg.sender].staked = false;\r\n\r\n\t\t//Transfer the staked token\r\n\t\tIERC20(_stakingToken).transfer(msg.sender,_amountToUnstake);\r\n\t\temit Unstaking(msg.sender,_amountToUnstake,_stakingToken);\r\n    }\r\n\r\n\r\n\t/* ============= REWARDS ============= */\r\n\r\n\t/**\r\n\t * Computes rewards and mint them to msg.sender\r\n\t * _token : staked token\r\n\t * require max every 30 sec can be called\r\n\t*/\r\n    function getReward(address _stakingToken) public stakerExist(_stakingToken,msg.sender){\r\n\t\trequire(block.timestamp - stakes[_stakingToken][msg.sender].updateTimestamp > 30 seconds,\"stop spam\");\r\n\t\t//Compute rewards = previous rewards calc (exemple : different staking time of the same token) + new rewards\r\n\t\tuint256 _rewardsInToken = stakes[_stakingToken][msg.sender].rewards;\r\n\t\tif(stakes[_stakingToken][msg.sender].stakingAmount > 0) {\r\n\t\t\t_rewardsInToken += calcRewardPerStake(_stakingToken, msg.sender);\r\n\t\t\t//Update the timestamp\r\n\t\t\tstakes[_stakingToken][msg.sender].updateTimestamp = block.timestamp;\r\n\t\t}\r\n\t\t\r\n\t\t//Re entrancy rewards = 0;\r\n\t\tstakes[_stakingToken][msg.sender].rewards = 0;\r\n\t\t//Convert rewards here\r\n\t\tuint256 _rewardsInPrice = calcRewardPrice(_stakingToken, _rewardsInToken);\r\n\t\t//Mint rewards\r\n\t\trewardsToken.mint(msg.sender,_rewardsInPrice);\r\n\t\temit Rewarding(msg.sender, _rewardsInPrice, address(rewardsToken));\r\n    }\r\n\r\n\t//Get the rewards in \"staked token\" : rewardRate/100 * staking period * share of the pool at updateTime\r\n    function calcRewardPerStake(address _token, address _sender) public returns(uint) {\r\n\t\tuint256 _rewards = DAILY_REWARD_RATE * (block.timestamp - stakes[_token][_sender].updateTimestamp) * stakes[_token][_sender].stakingAmount / (totalTokenSupply[_token] * 100 );\r\n\t\t//Update the timestamp\r\n\t\t//stakes[_token][_sender].updateTimestamp = block.timestamp;\r\n        return _rewards;\r\n    }\r\n\t\r\n\t//Get the rewards in price : _rewards * price[_token]\t\r\n\tfunction calcRewardPrice(address _token, uint256 _rewards) view public returns(uint) {\r\n\t\treturn _rewards * getPriceOfToken(_token);\r\n    }\r\n\r\n\t//Get the price in USD with chainlink of the _token\r\n    function getPriceOfToken(address _token) view public returns(uint){\r\n\t\ttry priceConsumer.getPrice(_token,Denominations.USD) returns(int x){\r\n\t\t\treturn uint(x<0?-x:x);\r\n\t\t} catch {\r\n\t\t\treturn 1;\r\n\t\t}\r\n\t}\r\n\r\n\t\r\n\t/* ============= HELPERS ============= */\r\n\t\r\n\tfunction getTokenList() public view returns(address[] memory){\r\n\t\treturn listOfToken;\r\n\t}\r\n\t\r\n\t//Plus checked the constructor\r\n}",
  "sourcePath": "D:\\Data\\Documents\\TruffleProjects\\MyStackingDapp\\back\\contracts\\MyStackingDapp.sol",
  "compiler": {
    "name": "solc",
    "version": "0.8.11+commit.d7f03943.Emscripten.clang"
  },
  "schemaVersion": "3.4.4",
  "updatedAt": "2022-03-26T14:12:37.533Z",
  "networkType": "ethereum",
  "devdoc": {
    "kind": "dev",
    "methods": {},
    "version": 1
  },
  "userdoc": {
    "kind": "user",
    "methods": {
      "getReward(address)": {
        "notice": "Computes rewards and mint them to msg.sender _token : staked token require max every 30 sec can be called"
      }
    },
    "version": 1
  }
}