{
  "contractName": "PriceConsumer",
  "abi": [
    {
      "inputs": [
        {
          "internalType": "address",
          "name": "_registry",
          "type": "address"
        }
      ],
      "stateMutability": "nonpayable",
      "type": "constructor"
    },
    {
      "inputs": [],
      "name": "getEthUsdPrice",
      "outputs": [
        {
          "internalType": "int256",
          "name": "",
          "type": "int256"
        }
      ],
      "stateMutability": "view",
      "type": "function"
    },
    {
      "inputs": [
        {
          "internalType": "address",
          "name": "base",
          "type": "address"
        },
        {
          "internalType": "address",
          "name": "quote",
          "type": "address"
        }
      ],
      "name": "getPrice",
      "outputs": [
        {
          "internalType": "int256",
          "name": "",
          "type": "int256"
        }
      ],
      "stateMutability": "view",
      "type": "function"
    }
  ],
  "bytecode": "0x608060405234801561001057600080fd5b50604051610575380380610575833981810160405281019061003291906100db565b806000806101000a81548173ffffffffffffffffffffffffffffffffffffffff021916908373ffffffffffffffffffffffffffffffffffffffff16021790555050610108565b600080fd5b600073ffffffffffffffffffffffffffffffffffffffff82169050919050565b60006100a88261007d565b9050919050565b6100b88161009d565b81146100c357600080fd5b50565b6000815190506100d5816100af565b92915050565b6000602082840312156100f1576100f0610078565b5b60006100ff848285016100c6565b91505092915050565b61045e806101176000396000f3fe608060405234801561001057600080fd5b50600436106100365760003560e01c8063a0a8045e1461003b578063ac41865a14610059575b600080fd5b610043610089565b6040516100509190610213565b60405180910390f35b610073600480360381019061006e9190610291565b61014b565b6040516100809190610213565b60405180910390f35b60008060008054906101000a900473ffffffffffffffffffffffffffffffffffffffff1673ffffffffffffffffffffffffffffffffffffffff1663bcfd032d73eeeeeeeeeeeeeeeeeeeeeeeeeeeeeeeeeeeeeeee6103486040518363ffffffff1660e01b81526004016100fd9291906102e0565b60a060405180830381865afa15801561011a573d6000803e3d6000fd5b505050506040513d601f19601f8201168201806040525081019061013e91906103ad565b5050509150508091505090565b60008060008054906101000a900473ffffffffffffffffffffffffffffffffffffffff1673ffffffffffffffffffffffffffffffffffffffff1663bcfd032d85856040518363ffffffff1660e01b81526004016101a99291906102e0565b60a060405180830381865afa1580156101c6573d6000803e3d6000fd5b505050506040513d601f19601f820116820180604052508101906101ea91906103ad565b5050509150508091505092915050565b6000819050919050565b61020d816101fa565b82525050565b60006020820190506102286000830184610204565b92915050565b600080fd5b600073ffffffffffffffffffffffffffffffffffffffff82169050919050565b600061025e82610233565b9050919050565b61026e81610253565b811461027957600080fd5b50565b60008135905061028b81610265565b92915050565b600080604083850312156102a8576102a761022e565b5b60006102b68582860161027c565b92505060206102c78582860161027c565b9150509250929050565b6102da81610253565b82525050565b60006040820190506102f560008301856102d1565b61030260208301846102d1565b9392505050565b600069ffffffffffffffffffff82169050919050565b61032881610309565b811461033357600080fd5b50565b6000815190506103458161031f565b92915050565b610354816101fa565b811461035f57600080fd5b50565b6000815190506103718161034b565b92915050565b6000819050919050565b61038a81610377565b811461039557600080fd5b50565b6000815190506103a781610381565b92915050565b600080600080600060a086880312156103c9576103c861022e565b5b60006103d788828901610336565b95505060206103e888828901610362565b94505060406103f988828901610398565b935050606061040a88828901610398565b925050608061041b88828901610336565b915050929550929590935056fea2646970667358221220a4b6846e738df2fdd3a97f4a335340ce7155393e35f1456113b18b34590cf15164736f6c634300080b0033",
  "immutableReferences": {},
  "source": "// SPDX-License-Identifier: MIT\r\npragma solidity 0.8.11;\r\n\r\nimport \"@chainlink/contracts/src/v0.8/interfaces/FeedRegistryInterface.sol\";\r\nimport \"@chainlink/contracts/src/v0.8/Denominations.sol\";\r\n\r\n\r\ncontract PriceConsumer {\r\n    FeedRegistryInterface internal registry;\r\n\r\n    /**\r\n     * Network: Ethereum Kovan\r\n     * Feed Registry: 0xAa7F6f7f507457a1EE157fE97F6c7DB2BEec5cD0\r\n\t * Network: Ethereum Mainnet\r\n     * Feed Registry: 0x47Fb2585D2C56Fe188D0E6ec628a38b74fCeeeDf\r\n     */\r\n    constructor(address _registry) {\r\n        registry = FeedRegistryInterface(_registry);\r\n    }\r\n\r\n    /**\r\n     * Returns the ETH / USD price\r\n     */\r\n    function getEthUsdPrice() public view returns (int) {\r\n        (\r\n            /* uint80 roundID*/,\r\n            int price,\r\n            /*uint startedAt*/,\r\n            /*uint timeStamp*/,\r\n            /*uint80 answeredInRound*/\r\n        ) = registry.latestRoundData(Denominations.ETH, Denominations.USD);\r\n        return price;\r\n    }\r\n\r\n    /**\r\n     * Returns the latest price\r\n     */\r\n    function getPrice(address base, address quote) public view returns (int) {\r\n        (\r\n            /* uint80 roundID*/,\r\n            int price,\r\n            /*uint startedAt*/,\r\n            /*uint timeStamp*/,\r\n            /*uint80 answeredInRound*/\r\n        ) = registry.latestRoundData(base, quote);\r\n        return price;\r\n    }\r\n}",
  "sourcePath": "D:\\Data\\Documents\\TruffleProjects\\MyStackingDapp\\back\\contracts\\PriceConsumer.sol",
  "compiler": {
    "name": "solc",
    "version": "0.8.11+commit.d7f03943.Emscripten.clang"
  },
  "schemaVersion": "3.4.4",
  "updatedAt": "2022-03-24T09:35:12.420Z",
  "devdoc": {
    "kind": "dev",
    "methods": {},
    "version": 1
  },
  "userdoc": {
    "kind": "user",
    "methods": {
      "constructor": {
        "notice": "Network: Ethereum Kovan Feed Registry: 0xAa7F6f7f507457a1EE157fE97F6c7DB2BEec5cD0 Network: Ethereum Mainnet Feed Registry: 0x47Fb2585D2C56Fe188D0E6ec628a38b74fCeeeDf"
      },
      "getEthUsdPrice()": {
        "notice": "Returns the ETH / USD price"
      },
      "getPrice(address,address)": {
        "notice": "Returns the latest price"
      }
    },
    "version": 1
  }
}