{
  "contractName": "myStackingDapp",
  "abi": [
    {
      "inputs": [],
      "stateMutability": "nonpayable",
      "type": "constructor"
    },
    {
      "anonymous": false,
      "inputs": [
        {
          "indexed": false,
          "internalType": "address",
          "name": "stakerAddress",
          "type": "address"
        },
        {
          "indexed": false,
          "internalType": "uint256",
          "name": "rewards",
          "type": "uint256"
        },
        {
          "indexed": false,
          "internalType": "address",
          "name": "stakingToken",
          "type": "address"
        }
      ],
      "name": "Rewarding",
      "type": "event"
    },
    {
      "anonymous": false,
      "inputs": [
        {
          "indexed": false,
          "internalType": "address",
          "name": "stakerAddress",
          "type": "address"
        },
        {
          "indexed": false,
          "internalType": "uint256",
          "name": "amountToStake",
          "type": "uint256"
        },
        {
          "indexed": false,
          "internalType": "address",
          "name": "stakingToken",
          "type": "address"
        }
      ],
      "name": "Staking",
      "type": "event"
    },
    {
      "anonymous": false,
      "inputs": [
        {
          "indexed": false,
          "internalType": "address",
          "name": "stakerAddress",
          "type": "address"
        },
        {
          "indexed": false,
          "internalType": "uint256",
          "name": "amountToUnstake",
          "type": "uint256"
        },
        {
          "indexed": false,
          "internalType": "address",
          "name": "stakingToken",
          "type": "address"
        }
      ],
      "name": "Unstaking",
      "type": "event"
    },
    {
      "inputs": [],
      "name": "DAILY_REWARD_RATE",
      "outputs": [
        {
          "internalType": "uint8",
          "name": "",
          "type": "uint8"
        }
      ],
      "stateMutability": "view",
      "type": "function",
      "constant": true
    },
    {
      "inputs": [
        {
          "internalType": "uint256",
          "name": "",
          "type": "uint256"
        }
      ],
      "name": "listOfStaker",
      "outputs": [
        {
          "internalType": "address",
          "name": "",
          "type": "address"
        }
      ],
      "stateMutability": "view",
      "type": "function",
      "constant": true
    },
    {
      "inputs": [
        {
          "internalType": "uint256",
          "name": "",
          "type": "uint256"
        }
      ],
      "name": "listOfToken",
      "outputs": [
        {
          "internalType": "address",
          "name": "",
          "type": "address"
        }
      ],
      "stateMutability": "view",
      "type": "function",
      "constant": true
    },
    {
      "inputs": [],
      "name": "priceConsumer",
      "outputs": [
        {
          "internalType": "contract PriceConsumer",
          "name": "",
          "type": "address"
        }
      ],
      "stateMutability": "view",
      "type": "function",
      "constant": true
    },
    {
      "inputs": [],
      "name": "rewardsToken",
      "outputs": [
        {
          "internalType": "contract AALToken",
          "name": "",
          "type": "address"
        }
      ],
      "stateMutability": "view",
      "type": "function",
      "constant": true
    },
    {
      "inputs": [
        {
          "internalType": "address",
          "name": "",
          "type": "address"
        },
        {
          "internalType": "address",
          "name": "",
          "type": "address"
        }
      ],
      "name": "stakes",
      "outputs": [
        {
          "internalType": "uint256",
          "name": "stakingAmount",
          "type": "uint256"
        },
        {
          "internalType": "uint256",
          "name": "startStakingTimestamp",
          "type": "uint256"
        },
        {
          "internalType": "uint256",
          "name": "updateTimestamp",
          "type": "uint256"
        },
        {
          "internalType": "uint256",
          "name": "rewards",
          "type": "uint256"
        },
        {
          "internalType": "bool",
          "name": "staked",
          "type": "bool"
        }
      ],
      "stateMutability": "view",
      "type": "function",
      "constant": true
    },
    {
      "inputs": [
        {
          "internalType": "address",
          "name": "",
          "type": "address"
        }
      ],
      "name": "totalTokenSupply",
      "outputs": [
        {
          "internalType": "uint256",
          "name": "",
          "type": "uint256"
        }
      ],
      "stateMutability": "view",
      "type": "function",
      "constant": true
    },
    {
      "inputs": [
        {
          "internalType": "address",
          "name": "_stakingToken",
          "type": "address"
        },
        {
          "internalType": "uint256",
          "name": "_amountToStake",
          "type": "uint256"
        }
      ],
      "name": "stake",
      "outputs": [],
      "stateMutability": "nonpayable",
      "type": "function"
    },
    {
      "inputs": [
        {
          "internalType": "address",
          "name": "_stakingToken",
          "type": "address"
        }
      ],
      "name": "unstake",
      "outputs": [],
      "stateMutability": "nonpayable",
      "type": "function"
    },
    {
      "inputs": [
        {
          "internalType": "address",
          "name": "_stakingToken",
          "type": "address"
        }
      ],
      "name": "getReward",
      "outputs": [],
      "stateMutability": "nonpayable",
      "type": "function"
    },
    {
      "inputs": [],
      "name": "getPriceOfAllSupply",
      "outputs": [
        {
          "internalType": "uint256",
          "name": "",
          "type": "uint256"
        }
      ],
      "stateMutability": "view",
      "type": "function",
      "constant": true
    },
    {
      "inputs": [
        {
          "internalType": "address",
          "name": "_token",
          "type": "address"
        }
      ],
      "name": "getPriceOfToken",
      "outputs": [
        {
          "internalType": "uint256",
          "name": "",
          "type": "uint256"
        }
      ],
      "stateMutability": "view",
      "type": "function",
      "constant": true
    }
  ],
  "bytecode": "0x60a0604052600260ff1660809060ff168152503480156200001f57600080fd5b506040516200002e906200011e565b604051809103906000f0801580156200004b573d6000803e3d6000fd5b506000806101000a81548173ffffffffffffffffffffffffffffffffffffffff021916908373ffffffffffffffffffffffffffffffffffffffff16021790555073aa7f6f7f507457a1ee157fe97f6c7db2beec5cd0604051620000ae906200012c565b620000ba91906200017f565b604051809103906000f080158015620000d7573d6000803e3d6000fd5b50600160006101000a81548173ffffffffffffffffffffffffffffffffffffffff021916908373ffffffffffffffffffffffffffffffffffffffff1602179055506200019c565b611d20806200222683390190565b6105758062003f4683390190565b600073ffffffffffffffffffffffffffffffffffffffff82169050919050565b600062000167826200013a565b9050919050565b62000179816200015a565b82525050565b60006020820190506200019660008301846200016e565b92915050565b608051612067620001bf60003960008181611533015261168201526120676000f3fe608060405234801561001057600080fd5b50600436106100b45760003560e01c8063adc9772e11610071578063adc9772e146101cb578063c00007b0146101e7578063d1af0c7d14610203578063d1f8680614610221578063f2888dbb1461023f578063f9a88fc41461025b576100b4565b80632c2332fe146100b9578063369ba1ac146100e9578063461a758c146101195780636a36c343146101375780638da8447814610167578063a4e47b6614610197575b600080fd5b6100d360048036038101906100ce91906117bf565b610279565b6040516100e09190611805565b60405180910390f35b61010360048036038101906100fe919061184c565b610291565b6040516101109190611888565b60405180910390f35b6101216102d0565b60405161012e9190611902565b60405180910390f35b610151600480360381019061014c919061184c565b6102f6565b60405161015e9190611888565b60405180910390f35b610181600480360381019061017c91906117bf565b610335565b60405161018e9190611805565b60405180910390f35b6101b160048036038101906101ac919061191d565b6103fb565b6040516101c2959493929190611978565b60405180910390f35b6101e560048036038101906101e091906119cb565b61044b565b005b61020160048036038101906101fc91906117bf565b610ab9565b005b61020b610f55565b6040516102189190611a2c565b60405180910390f35b610229610f79565b6040516102369190611805565b60405180910390f35b610259600480360381019061025491906117bf565b611083565b005b610263611531565b6040516102709190611a63565b60405180910390f35b60036020528060005260406000206000915090505481565b600481815481106102a157600080fd5b906000526020600020016000915054906101000a900473ffffffffffffffffffffffffffffffffffffffff1681565b600160009054906101000a900473ffffffffffffffffffffffffffffffffffffffff1681565b6005818154811061030657600080fd5b906000526020600020016000915054906101000a900473ffffffffffffffffffffffffffffffffffffffff1681565b600080600160009054906101000a900473ffffffffffffffffffffffffffffffffffffffff1673ffffffffffffffffffffffffffffffffffffffff1663ac41865a846103486040518363ffffffff1660e01b8152600401610397929190611a7e565b602060405180830381865afa1580156103b4573d6000803e3d6000fd5b505050506040513d601f19601f820116820180604052508101906103d89190611add565b9050600081126103e857806103f3565b806103f290611b39565b5b915050919050565b6002602052816000526040600020602052806000526040600020600091509150508060000154908060010154908060020154908060030154908060040160009054906101000a900460ff16905085565b806000811161048f576040517f08c379a000000000000000000000000000000000000000000000000000000000815260040161048690611bdf565b60405180910390fd5b818373ffffffffffffffffffffffffffffffffffffffff1663dd62ed3e33306040518363ffffffff1660e01b81526004016104cb929190611a7e565b602060405180830381865afa1580156104e8573d6000803e3d6000fd5b505050506040513d601f19601f8201168201806040525081019061050c9190611c14565b101561054d576040517f08c379a000000000000000000000000000000000000000000000000000000000815260040161054490611c8d565b60405180910390fd5b600260008473ffffffffffffffffffffffffffffffffffffffff1673ffffffffffffffffffffffffffffffffffffffff16815260200190815260200160002060003373ffffffffffffffffffffffffffffffffffffffff1673ffffffffffffffffffffffffffffffffffffffff16815260200190815260200160002060040160009054906101000a900460ff1661073e5760004290506040518060a001604052808481526020018281526020018281526020016000815260200160011515815250600260008673ffffffffffffffffffffffffffffffffffffffff1673ffffffffffffffffffffffffffffffffffffffff16815260200190815260200160002060003373ffffffffffffffffffffffffffffffffffffffff1673ffffffffffffffffffffffffffffffffffffffff1681526020019081526020016000206000820151816000015560208201518160010155604082015181600201556060820151816003015560808201518160040160006101000a81548160ff0219169083151502179055509050506004339080600181540180825580915050600190039060005260206000200160009091909190916101000a81548173ffffffffffffffffffffffffffffffffffffffff021916908373ffffffffffffffffffffffffffffffffffffffff160217905550506108f8565b6107488333611555565b600260008573ffffffffffffffffffffffffffffffffffffffff1673ffffffffffffffffffffffffffffffffffffffff16815260200190815260200160002060003373ffffffffffffffffffffffffffffffffffffffff1673ffffffffffffffffffffffffffffffffffffffff16815260200190815260200160002060030160008282546107d69190611cad565b9250508190555081600260008573ffffffffffffffffffffffffffffffffffffffff1673ffffffffffffffffffffffffffffffffffffffff16815260200190815260200160002060003373ffffffffffffffffffffffffffffffffffffffff1673ffffffffffffffffffffffffffffffffffffffff168152602001908152602001600020600001600082825461086c9190611cad565b9250508190555042600260008573ffffffffffffffffffffffffffffffffffffffff1673ffffffffffffffffffffffffffffffffffffffff16815260200190815260200160002060003373ffffffffffffffffffffffffffffffffffffffff1673ffffffffffffffffffffffffffffffffffffffff168152602001908152602001600020600201819055505b81600360008573ffffffffffffffffffffffffffffffffffffffff1673ffffffffffffffffffffffffffffffffffffffff16815260200190815260200160002060008282546109479190611cad565b9250508190555081600360008573ffffffffffffffffffffffffffffffffffffffff1673ffffffffffffffffffffffffffffffffffffffff16815260200190815260200160002054116109f8576005839080600181540180825580915050600190039060005260206000200160009091909190916101000a81548173ffffffffffffffffffffffffffffffffffffffff021916908373ffffffffffffffffffffffffffffffffffffffff1602179055505b8273ffffffffffffffffffffffffffffffffffffffff166323b872dd3330856040518463ffffffff1660e01b8152600401610a3593929190611d03565b6020604051808303816000875af1158015610a54573d6000803e3d6000fd5b505050506040513d601f19601f82011682018060405250810190610a789190611d66565b507f9b52f0c543858b9187b0b963bc5c12e3f5d09f9426891c3d8fe69aed57cfcfdf338385604051610aac93929190611d93565b60405180910390a1505050565b8033600260008373ffffffffffffffffffffffffffffffffffffffff1673ffffffffffffffffffffffffffffffffffffffff16815260200190815260200160002060008273ffffffffffffffffffffffffffffffffffffffff1673ffffffffffffffffffffffffffffffffffffffff16815260200190815260200160002060040160009054906101000a900460ff1680610bd257506000600260008473ffffffffffffffffffffffffffffffffffffffff1673ffffffffffffffffffffffffffffffffffffffff16815260200190815260200160002060008373ffffffffffffffffffffffffffffffffffffffff1673ffffffffffffffffffffffffffffffffffffffff16815260200190815260200160002060030154115b610c11576040517f08c379a0000000000000000000000000000000000000000000000000000000008152600401610c0890611e16565b60405180910390fd5b601e600260008573ffffffffffffffffffffffffffffffffffffffff1673ffffffffffffffffffffffffffffffffffffffff16815260200190815260200160002060003373ffffffffffffffffffffffffffffffffffffffff1673ffffffffffffffffffffffffffffffffffffffff1681526020019081526020016000206002015442610c9e9190611e36565b11610cde576040517f08c379a0000000000000000000000000000000000000000000000000000000008152600401610cd590611eb6565b60405180910390fd5b6000600260008573ffffffffffffffffffffffffffffffffffffffff1673ffffffffffffffffffffffffffffffffffffffff16815260200190815260200160002060003373ffffffffffffffffffffffffffffffffffffffff1673ffffffffffffffffffffffffffffffffffffffff1681526020019081526020016000206003015490506000600260008673ffffffffffffffffffffffffffffffffffffffff1673ffffffffffffffffffffffffffffffffffffffff16815260200190815260200160002060003373ffffffffffffffffffffffffffffffffffffffff1673ffffffffffffffffffffffffffffffffffffffff168152602001908152602001600020600001541115610e0257610df48433611555565b81610dff9190611cad565b90505b6000600260008673ffffffffffffffffffffffffffffffffffffffff1673ffffffffffffffffffffffffffffffffffffffff16815260200190815260200160002060003373ffffffffffffffffffffffffffffffffffffffff1673ffffffffffffffffffffffffffffffffffffffff1681526020019081526020016000206003018190555060008054906101000a900473ffffffffffffffffffffffffffffffffffffffff1673ffffffffffffffffffffffffffffffffffffffff166340c10f1933836040518363ffffffff1660e01b8152600401610ee2929190611ed6565b600060405180830381600087803b158015610efc57600080fd5b505af1158015610f10573d6000803e3d6000fd5b505050507f6e2e634c7351983b01159f0afca4d5c2d0bac5da2a3017a29d3faf7138c98a4d338286604051610f4793929190611d93565b60405180910390a150505050565b60008054906101000a900473ffffffffffffffffffffffffffffffffffffffff1681565b60008060005b60058054905081101561107b576003600060058381548110610fa457610fa3611eff565b5b9060005260206000200160009054906101000a900473ffffffffffffffffffffffffffffffffffffffff1673ffffffffffffffffffffffffffffffffffffffff1673ffffffffffffffffffffffffffffffffffffffff168152602001908152602001600020546110516005838154811061102157611020611eff565b5b9060005260206000200160009054906101000a900473ffffffffffffffffffffffffffffffffffffffff16610335565b61105b9190611f2e565b826110669190611cad565b9150808061107390611f88565b915050610f7f565b508091505090565b8033600260008373ffffffffffffffffffffffffffffffffffffffff1673ffffffffffffffffffffffffffffffffffffffff16815260200190815260200160002060008273ffffffffffffffffffffffffffffffffffffffff1673ffffffffffffffffffffffffffffffffffffffff16815260200190815260200160002060040160009054906101000a900460ff168061119c57506000600260008473ffffffffffffffffffffffffffffffffffffffff1673ffffffffffffffffffffffffffffffffffffffff16815260200190815260200160002060008373ffffffffffffffffffffffffffffffffffffffff1673ffffffffffffffffffffffffffffffffffffffff16815260200190815260200160002060030154115b6111db576040517f08c379a00000000000000000000000000000000000000000000000000000000081526004016111d290611e16565b60405180910390fd5b6111e58333611555565b600260008573ffffffffffffffffffffffffffffffffffffffff1673ffffffffffffffffffffffffffffffffffffffff16815260200190815260200160002060003373ffffffffffffffffffffffffffffffffffffffff1673ffffffffffffffffffffffffffffffffffffffff16815260200190815260200160002060030160008282546112739190611cad565b925050819055506000600260008573ffffffffffffffffffffffffffffffffffffffff1673ffffffffffffffffffffffffffffffffffffffff16815260200190815260200160002060003373ffffffffffffffffffffffffffffffffffffffff1673ffffffffffffffffffffffffffffffffffffffff16815260200190815260200160002060000154905080600360008673ffffffffffffffffffffffffffffffffffffffff1673ffffffffffffffffffffffffffffffffffffffff168152602001908152602001600020600082825461134d9190611e36565b925050819055506000600260008673ffffffffffffffffffffffffffffffffffffffff1673ffffffffffffffffffffffffffffffffffffffff16815260200190815260200160002060003373ffffffffffffffffffffffffffffffffffffffff1673ffffffffffffffffffffffffffffffffffffffff168152602001908152602001600020600001819055506000600260008673ffffffffffffffffffffffffffffffffffffffff1673ffffffffffffffffffffffffffffffffffffffff16815260200190815260200160002060003373ffffffffffffffffffffffffffffffffffffffff1673ffffffffffffffffffffffffffffffffffffffff16815260200190815260200160002060040160006101000a81548160ff0219169083151502179055508373ffffffffffffffffffffffffffffffffffffffff1663a9059cbb33836040518363ffffffff1660e01b81526004016114ac929190611ed6565b6020604051808303816000875af11580156114cb573d6000803e3d6000fd5b505050506040513d601f19601f820116820180604052508101906114ef9190611d66565b507f7b5ffc292164c35fc3df96417675489512b1cd7e4198684766b374531ab32c1d33828660405161152393929190611d93565b60405180910390a150505050565b7f000000000000000000000000000000000000000000000000000000000000000081565b6000806064611562610f79565b61156c9190611f2e565b600260008673ffffffffffffffffffffffffffffffffffffffff1673ffffffffffffffffffffffffffffffffffffffff16815260200190815260200160002060008573ffffffffffffffffffffffffffffffffffffffff1673ffffffffffffffffffffffffffffffffffffffff168152602001908152602001600020600001546115f586610335565b600260008873ffffffffffffffffffffffffffffffffffffffff1673ffffffffffffffffffffffffffffffffffffffff16815260200190815260200160002060008773ffffffffffffffffffffffffffffffffffffffff1673ffffffffffffffffffffffffffffffffffffffff16815260200190815260200160002060020154426116809190611e36565b7f000000000000000000000000000000000000000000000000000000000000000060ff166116ae9190611f2e565b6116b89190611f2e565b6116c29190611f2e565b6116cc9190612000565b905042600260008673ffffffffffffffffffffffffffffffffffffffff1673ffffffffffffffffffffffffffffffffffffffff16815260200190815260200160002060008573ffffffffffffffffffffffffffffffffffffffff1673ffffffffffffffffffffffffffffffffffffffff168152602001908152602001600020600201819055508091505092915050565b600080fd5b600073ffffffffffffffffffffffffffffffffffffffff82169050919050565b600061178c82611761565b9050919050565b61179c81611781565b81146117a757600080fd5b50565b6000813590506117b981611793565b92915050565b6000602082840312156117d5576117d461175c565b5b60006117e3848285016117aa565b91505092915050565b6000819050919050565b6117ff816117ec565b82525050565b600060208201905061181a60008301846117f6565b92915050565b611829816117ec565b811461183457600080fd5b50565b60008135905061184681611820565b92915050565b6000602082840312156118625761186161175c565b5b600061187084828501611837565b91505092915050565b61188281611781565b82525050565b600060208201905061189d6000830184611879565b92915050565b6000819050919050565b60006118c86118c36118be84611761565b6118a3565b611761565b9050919050565b60006118da826118ad565b9050919050565b60006118ec826118cf565b9050919050565b6118fc816118e1565b82525050565b600060208201905061191760008301846118f3565b92915050565b600080604083850312156119345761193361175c565b5b6000611942858286016117aa565b9250506020611953858286016117aa565b9150509250929050565b60008115159050919050565b6119728161195d565b82525050565b600060a08201905061198d60008301886117f6565b61199a60208301876117f6565b6119a760408301866117f6565b6119b460608301856117f6565b6119c16080830184611969565b9695505050505050565b600080604083850312156119e2576119e161175c565b5b60006119f0858286016117aa565b9250506020611a0185828601611837565b9150509250929050565b6000611a16826118cf565b9050919050565b611a2681611a0b565b82525050565b6000602082019050611a416000830184611a1d565b92915050565b600060ff82169050919050565b611a5d81611a47565b82525050565b6000602082019050611a786000830184611a54565b92915050565b6000604082019050611a936000830185611879565b611aa06020830184611879565b9392505050565b6000819050919050565b611aba81611aa7565b8114611ac557600080fd5b50565b600081519050611ad781611ab1565b92915050565b600060208284031215611af357611af261175c565b5b6000611b0184828501611ac8565b91505092915050565b7f4e487b7100000000000000000000000000000000000000000000000000000000600052601160045260246000fd5b6000611b4482611aa7565b91507f8000000000000000000000000000000000000000000000000000000000000000821415611b7757611b76611b0a565b5b816000039050919050565b600082825260208201905092915050565b7f416d6f756e74203c3d2030000000000000000000000000000000000000000000600082015250565b6000611bc9600b83611b82565b9150611bd482611b93565b602082019050919050565b60006020820190508181036000830152611bf881611bbc565b9050919050565b600081519050611c0e81611820565b92915050565b600060208284031215611c2a57611c2961175c565b5b6000611c3884828501611bff565b91505092915050565b7f436865636b2074686520746f6b656e20616c6c6f77616e636500000000000000600082015250565b6000611c77601983611b82565b9150611c8282611c41565b602082019050919050565b60006020820190508181036000830152611ca681611c6a565b9050919050565b6000611cb8826117ec565b9150611cc3836117ec565b9250827fffffffffffffffffffffffffffffffffffffffffffffffffffffffffffffffff03821115611cf857611cf7611b0a565b5b828201905092915050565b6000606082019050611d186000830186611879565b611d256020830185611879565b611d3260408301846117f6565b949350505050565b611d438161195d565b8114611d4e57600080fd5b50565b600081519050611d6081611d3a565b92915050565b600060208284031215611d7c57611d7b61175c565b5b6000611d8a84828501611d51565b91505092915050565b6000606082019050611da86000830186611879565b611db560208301856117f6565b611dc26040830184611879565b949350505050565b7f4e6f742061207374616b6572206f72206e6f2072657761726473000000000000600082015250565b6000611e00601a83611b82565b9150611e0b82611dca565b602082019050919050565b60006020820190508181036000830152611e2f81611df3565b9050919050565b6000611e41826117ec565b9150611e4c836117ec565b925082821015611e5f57611e5e611b0a565b5b828203905092915050565b7f73746f70207370616d0000000000000000000000000000000000000000000000600082015250565b6000611ea0600983611b82565b9150611eab82611e6a565b602082019050919050565b60006020820190508181036000830152611ecf81611e93565b9050919050565b6000604082019050611eeb6000830185611879565b611ef860208301846117f6565b9392505050565b7f4e487b7100000000000000000000000000000000000000000000000000000000600052603260045260246000fd5b6000611f39826117ec565b9150611f44836117ec565b9250817fffffffffffffffffffffffffffffffffffffffffffffffffffffffffffffffff0483118215151615611f7d57611f7c611b0a565b5b828202905092915050565b6000611f93826117ec565b91507fffffffffffffffffffffffffffffffffffffffffffffffffffffffffffffffff821415611fc657611fc5611b0a565b5b600182019050919050565b7f4e487b7100000000000000000000000000000000000000000000000000000000600052601260045260246000fd5b600061200b826117ec565b9150612016836117ec565b92508261202657612025611fd1565b5b82820490509291505056fea26469706673582212202c884ae83d544c6bf9b06123fe8e7a61eb72222d24c43607fd28a2cc4978ce8264736f6c634300080b003360806040523480156200001157600080fd5b506040518060400160405280600881526020017f41414c546f6b656e0000000000000000000000000000000000000000000000008152506040518060400160405280600381526020017f41414c0000000000000000000000000000000000000000000000000000000000815250816003908051906020019062000096929190620001a6565b508060049080519060200190620000af929190620001a6565b505050620000d2620000c6620000d860201b60201c565b620000e060201b60201c565b620002bb565b600033905090565b6000600560009054906101000a900473ffffffffffffffffffffffffffffffffffffffff16905081600560006101000a81548173ffffffffffffffffffffffffffffffffffffffff021916908373ffffffffffffffffffffffffffffffffffffffff1602179055508173ffffffffffffffffffffffffffffffffffffffff168173ffffffffffffffffffffffffffffffffffffffff167f8be0079c531659141344cd1fd0a4f28419497f9722a3daafe3b4186f6b6457e060405160405180910390a35050565b828054620001b49062000285565b90600052602060002090601f016020900481019282620001d8576000855562000224565b82601f10620001f357805160ff191683800117855562000224565b8280016001018555821562000224579182015b828111156200022357825182559160200191906001019062000206565b5b50905062000233919062000237565b5090565b5b808211156200025257600081600090555060010162000238565b5090565b7f4e487b7100000000000000000000000000000000000000000000000000000000600052602260045260246000fd5b600060028204905060018216806200029e57607f821691505b60208210811415620002b557620002b462000256565b5b50919050565b611a5580620002cb6000396000f3fe608060405234801561001057600080fd5b50600436106100f55760003560e01c806370a0823111610097578063a457c2d711610066578063a457c2d714610276578063a9059cbb146102a6578063dd62ed3e146102d6578063f2fde38b14610306576100f5565b806370a0823114610200578063715018a6146102305780638da5cb5b1461023a57806395d89b4114610258576100f5565b806323b872dd116100d357806323b872dd14610166578063313ce5671461019657806339509351146101b457806340c10f19146101e4576100f5565b806306fdde03146100fa578063095ea7b31461011857806318160ddd14610148575b600080fd5b610102610322565b60405161010f9190611121565b60405180910390f35b610132600480360381019061012d91906111dc565b6103b4565b60405161013f9190611237565b60405180910390f35b6101506103d7565b60405161015d9190611261565b60405180910390f35b610180600480360381019061017b919061127c565b6103e1565b60405161018d9190611237565b60405180910390f35b61019e610410565b6040516101ab91906112eb565b60405180910390f35b6101ce60048036038101906101c991906111dc565b610419565b6040516101db9190611237565b60405180910390f35b6101fe60048036038101906101f991906111dc565b6104c3565b005b61021a60048036038101906102159190611306565b610560565b6040516102279190611261565b60405180910390f35b6102386105a8565b005b610242610630565b60405161024f9190611342565b60405180910390f35b61026061065a565b60405161026d9190611121565b60405180910390f35b610290600480360381019061028b91906111dc565b6106ec565b60405161029d9190611237565b60405180910390f35b6102c060048036038101906102bb91906111dc565b6107d6565b6040516102cd9190611237565b60405180910390f35b6102f060048036038101906102eb919061135d565b6107f9565b6040516102fd9190611261565b60405180910390f35b610320600480360381019061031b9190611306565b610880565b005b606060038054610331906113cc565b80601f016020809104026020016040519081016040528092919081815260200182805461035d906113cc565b80156103aa5780601f1061037f576101008083540402835291602001916103aa565b820191906000526020600020905b81548152906001019060200180831161038d57829003601f168201915b5050505050905090565b6000806103bf610978565b90506103cc818585610980565b600191505092915050565b6000600254905090565b6000806103ec610978565b90506103f9858285610b4b565b610404858585610bd7565b60019150509392505050565b60006012905090565b600080610424610978565b90506104b8818585600160008673ffffffffffffffffffffffffffffffffffffffff1673ffffffffffffffffffffffffffffffffffffffff16815260200190815260200160002060008973ffffffffffffffffffffffffffffffffffffffff1673ffffffffffffffffffffffffffffffffffffffff168152602001908152602001600020546104b3919061142d565b610980565b600191505092915050565b6104cb610978565b73ffffffffffffffffffffffffffffffffffffffff166104e9610630565b73ffffffffffffffffffffffffffffffffffffffff161461053f576040517f08c379a0000000000000000000000000000000000000000000000000000000008152600401610536906114cf565b60405180910390fd5b61055c82670de0b6b3a76400008361055791906114ef565b610e58565b5050565b60008060008373ffffffffffffffffffffffffffffffffffffffff1673ffffffffffffffffffffffffffffffffffffffff168152602001908152602001600020549050919050565b6105b0610978565b73ffffffffffffffffffffffffffffffffffffffff166105ce610630565b73ffffffffffffffffffffffffffffffffffffffff1614610624576040517f08c379a000000000000000000000000000000000000000000000000000000000815260040161061b906114cf565b60405180910390fd5b61062e6000610fb8565b565b6000600560009054906101000a900473ffffffffffffffffffffffffffffffffffffffff16905090565b606060048054610669906113cc565b80601f0160208091040260200160405190810160405280929190818152602001828054610695906113cc565b80156106e25780601f106106b7576101008083540402835291602001916106e2565b820191906000526020600020905b8154815290600101906020018083116106c557829003601f168201915b5050505050905090565b6000806106f7610978565b90506000600160008373ffffffffffffffffffffffffffffffffffffffff1673ffffffffffffffffffffffffffffffffffffffff16815260200190815260200160002060008673ffffffffffffffffffffffffffffffffffffffff1673ffffffffffffffffffffffffffffffffffffffff168152602001908152602001600020549050838110156107bd576040517f08c379a00000000000000000000000000000000000000000000000000000000081526004016107b4906115bb565b60405180910390fd5b6107ca8286868403610980565b60019250505092915050565b6000806107e1610978565b90506107ee818585610bd7565b600191505092915050565b6000600160008473ffffffffffffffffffffffffffffffffffffffff1673ffffffffffffffffffffffffffffffffffffffff16815260200190815260200160002060008373ffffffffffffffffffffffffffffffffffffffff1673ffffffffffffffffffffffffffffffffffffffff16815260200190815260200160002054905092915050565b610888610978565b73ffffffffffffffffffffffffffffffffffffffff166108a6610630565b73ffffffffffffffffffffffffffffffffffffffff16146108fc576040517f08c379a00000000000000000000000000000000000000000000000000000000081526004016108f3906114cf565b60405180910390fd5b600073ffffffffffffffffffffffffffffffffffffffff168173ffffffffffffffffffffffffffffffffffffffff16141561096c576040517f08c379a00000000000000000000000000000000000000000000000000000000081526004016109639061164d565b60405180910390fd5b61097581610fb8565b50565b600033905090565b600073ffffffffffffffffffffffffffffffffffffffff168373ffffffffffffffffffffffffffffffffffffffff1614156109f0576040517f08c379a00000000000000000000000000000000000000000000000000000000081526004016109e7906116df565b60405180910390fd5b600073ffffffffffffffffffffffffffffffffffffffff168273ffffffffffffffffffffffffffffffffffffffff161415610a60576040517f08c379a0000000000000000000000000000000000000000000000000000000008152600401610a5790611771565b60405180910390fd5b80600160008573ffffffffffffffffffffffffffffffffffffffff1673ffffffffffffffffffffffffffffffffffffffff16815260200190815260200160002060008473ffffffffffffffffffffffffffffffffffffffff1673ffffffffffffffffffffffffffffffffffffffff168152602001908152602001600020819055508173ffffffffffffffffffffffffffffffffffffffff168373ffffffffffffffffffffffffffffffffffffffff167f8c5be1e5ebec7d5bd14f71427d1e84f3dd0314c0f7b2291e5b200ac8c7c3b92583604051610b3e9190611261565b60405180910390a3505050565b6000610b5784846107f9565b90507fffffffffffffffffffffffffffffffffffffffffffffffffffffffffffffffff8114610bd15781811015610bc3576040517f08c379a0000000000000000000000000000000000000000000000000000000008152600401610bba906117dd565b60405180910390fd5b610bd08484848403610980565b5b50505050565b600073ffffffffffffffffffffffffffffffffffffffff168373ffffffffffffffffffffffffffffffffffffffff161415610c47576040517f08c379a0000000000000000000000000000000000000000000000000000000008152600401610c3e9061186f565b60405180910390fd5b600073ffffffffffffffffffffffffffffffffffffffff168273ffffffffffffffffffffffffffffffffffffffff161415610cb7576040517f08c379a0000000000000000000000000000000000000000000000000000000008152600401610cae90611901565b60405180910390fd5b610cc283838361107e565b60008060008573ffffffffffffffffffffffffffffffffffffffff1673ffffffffffffffffffffffffffffffffffffffff16815260200190815260200160002054905081811015610d48576040517f08c379a0000000000000000000000000000000000000000000000000000000008152600401610d3f90611993565b60405180910390fd5b8181036000808673ffffffffffffffffffffffffffffffffffffffff1673ffffffffffffffffffffffffffffffffffffffff16815260200190815260200160002081905550816000808573ffffffffffffffffffffffffffffffffffffffff1673ffffffffffffffffffffffffffffffffffffffff1681526020019081526020016000206000828254610ddb919061142d565b925050819055508273ffffffffffffffffffffffffffffffffffffffff168473ffffffffffffffffffffffffffffffffffffffff167fddf252ad1be2c89b69c2b068fc378daa952ba7f163c4a11628f55a4df523b3ef84604051610e3f9190611261565b60405180910390a3610e52848484611083565b50505050565b600073ffffffffffffffffffffffffffffffffffffffff168273ffffffffffffffffffffffffffffffffffffffff161415610ec8576040517f08c379a0000000000000000000000000000000000000000000000000000000008152600401610ebf906119ff565b60405180910390fd5b610ed46000838361107e565b8060026000828254610ee6919061142d565b92505081905550806000808473ffffffffffffffffffffffffffffffffffffffff1673ffffffffffffffffffffffffffffffffffffffff1681526020019081526020016000206000828254610f3b919061142d565b925050819055508173ffffffffffffffffffffffffffffffffffffffff16600073ffffffffffffffffffffffffffffffffffffffff167fddf252ad1be2c89b69c2b068fc378daa952ba7f163c4a11628f55a4df523b3ef83604051610fa09190611261565b60405180910390a3610fb460008383611083565b5050565b6000600560009054906101000a900473ffffffffffffffffffffffffffffffffffffffff16905081600560006101000a81548173ffffffffffffffffffffffffffffffffffffffff021916908373ffffffffffffffffffffffffffffffffffffffff1602179055508173ffffffffffffffffffffffffffffffffffffffff168173ffffffffffffffffffffffffffffffffffffffff167f8be0079c531659141344cd1fd0a4f28419497f9722a3daafe3b4186f6b6457e060405160405180910390a35050565b505050565b505050565b600081519050919050565b600082825260208201905092915050565b60005b838110156110c25780820151818401526020810190506110a7565b838111156110d1576000848401525b50505050565b6000601f19601f8301169050919050565b60006110f382611088565b6110fd8185611093565b935061110d8185602086016110a4565b611116816110d7565b840191505092915050565b6000602082019050818103600083015261113b81846110e8565b905092915050565b600080fd5b600073ffffffffffffffffffffffffffffffffffffffff82169050919050565b600061117382611148565b9050919050565b61118381611168565b811461118e57600080fd5b50565b6000813590506111a08161117a565b92915050565b6000819050919050565b6111b9816111a6565b81146111c457600080fd5b50565b6000813590506111d6816111b0565b92915050565b600080604083850312156111f3576111f2611143565b5b600061120185828601611191565b9250506020611212858286016111c7565b9150509250929050565b60008115159050919050565b6112318161121c565b82525050565b600060208201905061124c6000830184611228565b92915050565b61125b816111a6565b82525050565b60006020820190506112766000830184611252565b92915050565b60008060006060848603121561129557611294611143565b5b60006112a386828701611191565b93505060206112b486828701611191565b92505060406112c5868287016111c7565b9150509250925092565b600060ff82169050919050565b6112e5816112cf565b82525050565b600060208201905061130060008301846112dc565b92915050565b60006020828403121561131c5761131b611143565b5b600061132a84828501611191565b91505092915050565b61133c81611168565b82525050565b60006020820190506113576000830184611333565b92915050565b6000806040838503121561137457611373611143565b5b600061138285828601611191565b925050602061139385828601611191565b9150509250929050565b7f4e487b7100000000000000000000000000000000000000000000000000000000600052602260045260246000fd5b600060028204905060018216806113e457607f821691505b602082108114156113f8576113f761139d565b5b50919050565b7f4e487b7100000000000000000000000000000000000000000000000000000000600052601160045260246000fd5b6000611438826111a6565b9150611443836111a6565b9250827fffffffffffffffffffffffffffffffffffffffffffffffffffffffffffffffff03821115611478576114776113fe565b5b828201905092915050565b7f4f776e61626c653a2063616c6c6572206973206e6f7420746865206f776e6572600082015250565b60006114b9602083611093565b91506114c482611483565b602082019050919050565b600060208201905081810360008301526114e8816114ac565b9050919050565b60006114fa826111a6565b9150611505836111a6565b9250817fffffffffffffffffffffffffffffffffffffffffffffffffffffffffffffffff048311821515161561153e5761153d6113fe565b5b828202905092915050565b7f45524332303a2064656372656173656420616c6c6f77616e63652062656c6f7760008201527f207a65726f000000000000000000000000000000000000000000000000000000602082015250565b60006115a5602583611093565b91506115b082611549565b604082019050919050565b600060208201905081810360008301526115d481611598565b9050919050565b7f4f776e61626c653a206e6577206f776e657220697320746865207a65726f206160008201527f6464726573730000000000000000000000000000000000000000000000000000602082015250565b6000611637602683611093565b9150611642826115db565b604082019050919050565b600060208201905081810360008301526116668161162a565b9050919050565b7f45524332303a20617070726f76652066726f6d20746865207a65726f2061646460008201527f7265737300000000000000000000000000000000000000000000000000000000602082015250565b60006116c9602483611093565b91506116d48261166d565b604082019050919050565b600060208201905081810360008301526116f8816116bc565b9050919050565b7f45524332303a20617070726f766520746f20746865207a65726f20616464726560008201527f7373000000000000000000000000000000000000000000000000000000000000602082015250565b600061175b602283611093565b9150611766826116ff565b604082019050919050565b6000602082019050818103600083015261178a8161174e565b9050919050565b7f45524332303a20696e73756666696369656e7420616c6c6f77616e6365000000600082015250565b60006117c7601d83611093565b91506117d282611791565b602082019050919050565b600060208201905081810360008301526117f6816117ba565b9050919050565b7f45524332303a207472616e736665722066726f6d20746865207a65726f20616460008201527f6472657373000000000000000000000000000000000000000000000000000000602082015250565b6000611859602583611093565b9150611864826117fd565b604082019050919050565b600060208201905081810360008301526118888161184c565b9050919050565b7f45524332303a207472616e7366657220746f20746865207a65726f206164647260008201527f6573730000000000000000000000000000000000000000000000000000000000602082015250565b60006118eb602383611093565b91506118f68261188f565b604082019050919050565b6000602082019050818103600083015261191a816118de565b9050919050565b7f45524332303a207472616e7366657220616d6f756e742065786365656473206260008201527f616c616e63650000000000000000000000000000000000000000000000000000602082015250565b600061197d602683611093565b915061198882611921565b604082019050919050565b600060208201905081810360008301526119ac81611970565b9050919050565b7f45524332303a206d696e7420746f20746865207a65726f206164647265737300600082015250565b60006119e9601f83611093565b91506119f4826119b3565b602082019050919050565b60006020820190508181036000830152611a18816119dc565b905091905056fea26469706673582212207890ca64cca706719dc851216cf570124062914a6b58bac3b12ac60283af169f64736f6c634300080b0033608060405234801561001057600080fd5b50604051610575380380610575833981810160405281019061003291906100db565b806000806101000a81548173ffffffffffffffffffffffffffffffffffffffff021916908373ffffffffffffffffffffffffffffffffffffffff16021790555050610108565b600080fd5b600073ffffffffffffffffffffffffffffffffffffffff82169050919050565b60006100a88261007d565b9050919050565b6100b88161009d565b81146100c357600080fd5b50565b6000815190506100d5816100af565b92915050565b6000602082840312156100f1576100f0610078565b5b60006100ff848285016100c6565b91505092915050565b61045e806101176000396000f3fe608060405234801561001057600080fd5b50600436106100365760003560e01c8063a0a8045e1461003b578063ac41865a14610059575b600080fd5b610043610089565b6040516100509190610213565b60405180910390f35b610073600480360381019061006e9190610291565b61014b565b6040516100809190610213565b60405180910390f35b60008060008054906101000a900473ffffffffffffffffffffffffffffffffffffffff1673ffffffffffffffffffffffffffffffffffffffff1663bcfd032d73eeeeeeeeeeeeeeeeeeeeeeeeeeeeeeeeeeeeeeee6103486040518363ffffffff1660e01b81526004016100fd9291906102e0565b60a060405180830381865afa15801561011a573d6000803e3d6000fd5b505050506040513d601f19601f8201168201806040525081019061013e91906103ad565b5050509150508091505090565b60008060008054906101000a900473ffffffffffffffffffffffffffffffffffffffff1673ffffffffffffffffffffffffffffffffffffffff1663bcfd032d85856040518363ffffffff1660e01b81526004016101a99291906102e0565b60a060405180830381865afa1580156101c6573d6000803e3d6000fd5b505050506040513d601f19601f820116820180604052508101906101ea91906103ad565b5050509150508091505092915050565b6000819050919050565b61020d816101fa565b82525050565b60006020820190506102286000830184610204565b92915050565b600080fd5b600073ffffffffffffffffffffffffffffffffffffffff82169050919050565b600061025e82610233565b9050919050565b61026e81610253565b811461027957600080fd5b50565b60008135905061028b81610265565b92915050565b600080604083850312156102a8576102a761022e565b5b60006102b68582860161027c565b92505060206102c78582860161027c565b9150509250929050565b6102da81610253565b82525050565b60006040820190506102f560008301856102d1565b61030260208301846102d1565b9392505050565b600069ffffffffffffffffffff82169050919050565b61032881610309565b811461033357600080fd5b50565b6000815190506103458161031f565b92915050565b610354816101fa565b811461035f57600080fd5b50565b6000815190506103718161034b565b92915050565b6000819050919050565b61038a81610377565b811461039557600080fd5b50565b6000815190506103a781610381565b92915050565b600080600080600060a086880312156103c9576103c861022e565b5b60006103d788828901610336565b95505060206103e888828901610362565b94505060406103f988828901610398565b935050606061040a88828901610398565b925050608061041b88828901610336565b915050929550929590935056fea2646970667358221220a4b6846e738df2fdd3a97f4a335340ce7155393e35f1456113b18b34590cf15164736f6c634300080b0033",
  "immutableReferences": {
    "1442": [
      {
        "length": 32,
        "start": 5427
      },
      {
        "length": 32,
        "start": 5762
      }
    ]
  },
  "source": "// SPDX-License-Identifier: MIT\r\npragma solidity 0.8.11;\r\n\r\nimport \"./AALToken.sol\";\r\nimport \"./PriceConsumer.sol\";\r\n\r\n\r\n\t//mapping(address => Stake) public stakes;\r\n\t//IERC20 stakingToken;\r\n    \r\n//Hypothese : stacking of WETH to get AALToken\r\ncontract myStackingDapp {\r\n\t\r\n    //Stake struct with token staked\r\n\tstruct Stake {\r\n\t\tuint256 stakingAmount;\r\n\t\tuint256 startStakingTimestamp;\r\n\t\tuint256 updateTimestamp;\r\n\t\tuint256 rewards;\r\n\t\tbool staked;\r\n\t}\r\n\r\n    //Token rewarded for staking\r\n\tAALToken public rewardsToken;\r\n\tPriceConsumer public priceConsumer;\r\n\tuint8 public immutable DAILY_REWARD_RATE = 2;\r\n\t\r\n\r\n    //Mapping of : Stake per User per Token staked\r\n\t// Token A => User A => Stake 1\r\n\t// Token A => User B => Stake 2\r\n\t// Token B => User A => Stake 3\r\n\tmapping(address => mapping(address => Stake)) public stakes;\r\n\r\n\t//TotalSupplyOfToken per token address\r\n    mapping(address => uint256) public totalTokenSupply;\r\n\r\n\t//Helpers\r\n\taddress[] public listOfStaker;\r\n\taddress[] public listOfToken;\r\n\r\n\tevent Staking(address stakerAddress, uint256 amountToStake, address stakingToken);\r\n    event Unstaking(address stakerAddress, uint256 amountToUnstake, address stakingToken);\r\n\tevent Rewarding(address stakerAddress, uint256 rewards, address stakingToken);\r\n\r\n\tmodifier amountStrictPositiv(uint256 _amount){\r\n\t\trequire(_amount > 0,\"Amount <= 0\");\r\n\t\t_;\r\n\t}\r\n\r\n\tmodifier stakerExist(address _token, address _sender){\r\n\t\trequire(stakes[_token][_sender].staked || stakes[_token][_sender].rewards > 0,\"Not a staker or no rewards\");\r\n\t\t_;\r\n\t}\r\n\r\n    //Launch of this contract with definition of supply of AALToken, maybe to change...\r\n\tconstructor() {\r\n\t\trewardsToken = new AALToken();\r\n\t\tpriceConsumer = new PriceConsumer(0xAa7F6f7f507457a1EE157fE97F6c7DB2BEec5cD0);\r\n\t}\r\n\r\n\r\n    /* ============= STAKE ============= */\r\n\r\n\tfunction stake(address _stakingToken, uint256 _amountToStake) public amountStrictPositiv(_amountToStake) {\r\n\t\t\r\n\t\t//Check allowance of the token IERC20 the user will stake\r\n        require(IERC20(_stakingToken).allowance(msg.sender, address(this)) >= _amountToStake, \"Check the token allowance\");\r\n\r\n        if(!stakes[_stakingToken][msg.sender].staked){\r\n\t\t\t//If this stake does not exist : Create the Stake struc in the Stake per User per Token mapping\r\n\t\t\tuint256 ts = block.timestamp;\r\n\t\t\tstakes[_stakingToken][msg.sender] = Stake(_amountToStake, ts, ts, 0, true);\r\n\t\t\t//And push that new staker\r\n\t\t\tlistOfStaker.push(msg.sender);\r\n\t\t} else {\r\n\t\t\t//If this stake already exists : Compute previous reward, update the timestamp and the amount\r\n\t\t\tstakes[_stakingToken][msg.sender].rewards += calcRewardPerStake(_stakingToken,msg.sender);\r\n\t\t\tstakes[_stakingToken][msg.sender].stakingAmount += _amountToStake;\r\n\t\t\tstakes[_stakingToken][msg.sender].updateTimestamp = block.timestamp;\r\n\t\t}\r\n\t\t\r\n        //The total supply of that token increases of _amountToStake\r\n\t\ttotalTokenSupply[_stakingToken] += _amountToStake;\r\n\r\n\t\t//If the totalSupply of that token is sup of the amount, that means the token already exists, so we don't need to push it in the array\r\n\t\tif(totalTokenSupply[_stakingToken] <= _amountToStake) {\r\n\t\t\tlistOfToken.push(_stakingToken);\r\n\t\t}\r\n\r\n        //Transfer from user's wallet to this contract of _amountToStake\r\n        IERC20(_stakingToken).transferFrom(msg.sender,address(this),_amountToStake);\r\n\r\n\t\temit Staking(msg.sender,_amountToStake,_stakingToken);\r\n\t}\r\n\r\n\r\n\t/* ============= UNSTAKE ============= */\r\n    \r\n\tfunction unstake(address _stakingToken) public stakerExist(_stakingToken,msg.sender){\r\n\t\t//Computes reward first (in calc reward the updateTimestamp is updated so we dont do it here)\r\n\t\tstakes[_stakingToken][msg.sender].rewards += calcRewardPerStake(_stakingToken,msg.sender);\r\n\t\t\r\n\t\tuint256 _amountToUnstake = stakes[_stakingToken][msg.sender].stakingAmount;\r\n\t\t//Update of the total supply of that _stakingToken\r\n        totalTokenSupply[_stakingToken] -= _amountToUnstake;\r\n\t\r\n\t\t//Update the struct of the Staker - Stake(0, tsStart, tsUpdated, rewards, false);\r\n\t\tstakes[_stakingToken][msg.sender].stakingAmount = 0;\r\n\t\tstakes[_stakingToken][msg.sender].staked = false;\r\n\r\n\t\t//Transfer the staked token\r\n\t\tIERC20(_stakingToken).transfer(msg.sender,_amountToUnstake);\r\n\t\temit Unstaking(msg.sender,_amountToUnstake,_stakingToken);\r\n    }\r\n\r\n\r\n\t/* ============= REWARDS ============= */\r\n\r\n\t/**\r\n\t * Computes rewards and transfers them msg.sender\r\n\t * _token : staked token\r\n\t * require max every 30 sec can be called\r\n\t*/\r\n\t\r\n    function getReward(address _stakingToken) public stakerExist(_stakingToken,msg.sender){\r\n\t\trequire(block.timestamp - stakes[_stakingToken][msg.sender].updateTimestamp > 30 seconds,\"stop spam\");\r\n\t\t//Compute rewards = previous rewards calc + new rewards\r\n\t\tuint256 _rewards = stakes[_stakingToken][msg.sender].rewards;\r\n\t\tif(stakes[_stakingToken][msg.sender].stakingAmount > 0) {\r\n\t\t\t_rewards += calcRewardPerStake(_stakingToken, msg.sender);\r\n\t\t}\r\n\t\t\r\n\t\t//Re entrancy rewards = 0;\r\n\t\tstakes[_stakingToken][msg.sender].rewards = 0;\r\n\r\n\t\t//Mint rewards\r\n\t\trewardsToken.mint(msg.sender,_rewards);\r\n\r\n\t\t//Transfer rewards\r\n\t\t//require(_rewards > 0 && rewardsToken.totalSupply() > _rewards,\"Rewards = 0 or totalSupply reached!\");\r\n\t\t//rewardsToken.transfer(msg.sender,_rewards);\r\n\t\temit Rewarding(msg.sender, _rewards,_stakingToken);\r\n    }\r\n\r\n    function calcRewardPerStake(address _token, address _sender) internal returns(uint) {\r\n\t\t//Get the rewards : rewardRate * staking period * share of the pool at updateTime\r\n\t\t//uint256 _rewards = DAILY_REWARD_RATE * (block.timestamp - stakes[_token][_sender].updateTimestamp) * getPriceOfToken(_token) * stakes[_token][_sender].stakingAmount / (getPriceOfAllSupply() * 100 * 1 days );\r\n\t\tuint256 _rewards = DAILY_REWARD_RATE * (block.timestamp - stakes[_token][_sender].updateTimestamp) * getPriceOfToken(_token) * stakes[_token][_sender].stakingAmount / (getPriceOfAllSupply() * 100 );\r\n\t\t//Update the timestamp\r\n\t\tstakes[_token][_sender].updateTimestamp = block.timestamp;\r\n        return _rewards;\r\n    }\r\n\t\r\n\t//TODO pb of the array to correct\r\n\tfunction getPriceOfAllSupply() view public returns(uint){\r\n\t\tuint256 amount;\r\n\t\tfor(uint i = 0; i<listOfToken.length ; i++){\r\n\t\t\tamount += getPriceOfToken(listOfToken[i])*totalTokenSupply[listOfToken[i]];\r\n\t\t}\r\n\t\treturn amount;\r\n\t}\r\n\r\n    function getPriceOfToken(address _token) view public returns(uint){\r\n        //Oracle call here\r\n\t\tint x = priceConsumer.getPrice(_token,Denominations.USD);\r\n\t\treturn uint(x<0?-x:x);\r\n    }\r\n\r\n\t/*function getRewardRate() view public returns(uint){\r\n\t\tif(rewardsToken.totalSupply() > rewardsToken.initialSupply() * 80/100) {\r\n\t\t\treturn 8;\r\n\t\t} else if(rewardsToken.totalSupply() > rewardsToken.initialSupply() * 60/100) {\r\n\t\t\treturn 6;\r\n\t\t} else if(rewardsToken.totalSupply() > rewardsToken.initialSupply() * 40/100) {\r\n\t\t\treturn 4;\r\n\t\t} else if(rewardsToken.totalSupply() > rewardsToken.initialSupply() * 20/100) {\r\n\t\t\treturn 2;\r\n\t\t} else {\r\n\t\t\treturn 1;\r\n\t\t}\r\n\t}*/\r\n}",
  "sourcePath": "D:\\Data\\Documents\\TruffleProjects\\MyStackingDapp\\back\\contracts\\MyStackingDapp.sol",
  "compiler": {
    "name": "solc",
    "version": "0.8.11+commit.d7f03943.Emscripten.clang"
  },
  "schemaVersion": "3.4.4",
  "updatedAt": "2022-03-23T13:56:11.246Z",
  "networkType": "ethereum",
  "devdoc": {
    "kind": "dev",
    "methods": {},
    "version": 1
  },
  "userdoc": {
    "kind": "user",
    "methods": {
      "getReward(address)": {
        "notice": "Computes rewards and transfers them msg.sender _token : staked token require max every 30 sec can be called"
      }
    },
    "version": 1
  }
}